:10000000002300203D1900003919000039190000B3
:1000100000000000000000000000000000000000E0
:10002000000000000000000000000000391900007E
:10003000000000000000000039190000391900001C
:100040003919000039190000391900003919000068
:100050003919000039190000391900003919000058
:1000600039190000B90E0000C90E0000D90E0000B9
:10007000E90E0000F90E0000090F0000610F0000FA
:10008000710F0000810F00003919000039190000BC
:1000900039190000000000000000000039190000BC
:1000A00039190000000000003919000000000000AC
:1000B0000000000010B5064C2378002B07D1054B3B
:1000C000002B02D0044800E000BF0123237010BDC4
:1000D0007401002000000000E450000008B5084B47
:1000E000002B03D00748084900E000BF0748036819
:1000F000002B00D108BD064B002BFBD09847F9E739
:1001000000000000E450000078010020E4500000EE
:100110000000000010B50020084B9847084CFA2159
:100120008900A047074B1860FA218900A047064BB9
:1001300018600522054B1A6010BDC046C9160000A4
:100140009D1E0000040000200000002010E000E0E0
:1001500030B5084B1C68084A00258021490206E09A
:10016000002C04D05460956013680B42FCD0013819
:10017000F6D230BD0000002010E000E030B5084BA2
:100180001C68084A00258021490206E0002C04D0A2
:100190005460956013680B42FCD00138F6D230BD34
:1001A0000400002010E000E010B54908402481421E
:1001B0000CD30023091A01339BB28842FAD9013BC0
:1001C0009BB24024FF2B01D813800024201C10BDBB
:1001D000F0B55F4656464D464446F0B489B01C1C07
:1001E00012AB1B78061C5E4340258E4200D9C7E047
:1001F000251C07920C1C021C002D51D1181C00213B
:100200000023634DA8478346261C002700230024B3
:1002100002930394002200233F2020218C461F39A3
:100220000096019720246442041903D40D1CA540B4
:10023000A84604E06446241A0D1CE540A8460C1CA0
:100240008440A146141C1D1CA4185D41221C2B1CBB
:100250005E4647463E4203D00E1C2643321C2B1CF2
:10026000019C9C4210D802D1009C94420CD8009C66
:10027000019D121BAB414D46029E039F35433C1C22
:1002800046463443029503940138CBD20022012321
:1002900002980399121A8B41110C1B0419436CE04C
:1002A0000021012D69D1610F0F1CE1008846181C47
:1002B00000210023364CA047041C0D1C00239C4643
:1002C00020339B46012663460593B9466B461B7D4A
:1002D000069300239C46002000213F2200940195B4
:1002E00020235B42D31803D4341C9C40231C04E01D
:1002F0005B469B1A341CDC40231C371C9740041CB3
:100300000D1C24184D41201C291C029003914446C9
:100310003C40A2464C4623405446234305D0029B12
:10032000039C1D1C3543281C211C019B8B420AD8B1
:1003300002D1009B834206D8009B019CC01AA141B8
:1003400063463B439C46013ACAD2009C019D6246EB
:100350000599531ADB080F4A934208D9069A0132CD
:10036000D2B206920A1C01320592082AAED140256B
:10037000069A082A04D051031943079B19800025C7
:10038000281C09B03CBC90469946A246AB46F0BD3D
:10039000A1210000FF1F000010B582B0041C0E4B0D
:1003A0001B78002B01D000290DD001A90C7013205F
:1003B0000A4B984713200A4B9847074B5C70012261
:1003C0001A70002006E0044B5B78834201D01D20A8
:1003D00000E0002002B010BD90010020E1170000F5
:1003E00055170000444B984233D006D8434B9842EF
:1003F0000DD0434B98421BD06FE0424B98424AD0FD
:10040000414B984258D0414B984266D132E0012985
:1004100006D0002963D0022906D0032906D001E0C6
:100420003B4867E0002065E03A4863E03A4861E015
:10043000012906D0002954D0022906D0032906D06C
:1004400001E0364856E0002054E0354852E0354897
:1004500050E0012906D0002945D0022906D0032901
:1004600006D001E0304845E0002043E02F4841E05D
:100470002F483FE0012906D0002936D0022906D0B6
:10048000032906D001E02B4834E0002032E02A485E
:1004900030E02A482EE0012906D0002927D0022981
:1004A00006D0032906D001E0254823E0002021E002
:1004B00024481FE024481DE0012906D0002918D057
:1004C000022906D0032906D001E0204812E00020CE
:1004D00010E01F480EE01F480CE000200AE01E4814
:1004E00008E0032006E01D4804E01D4802E01D4826
:1004F00000E01D487047C04600100042000800425E
:10050000000C004200180042001C0042001400428F
:1005100003000500030006000300070003000100BC
:1005200003001E0003001F0002000D0002000E0069
:1005300002000F000300110003001200030013006B
:1005400005003F0005003E000500520003001700B3
:1005500003001800030019000300040002000C004F
:1005600003001000050053000300160030B587B0EB
:100570000C4B6A4632CB32C232CB32C2009B834232
:1005800006D001239A0069465258824203D100E006
:100590000023D8B203E00133062BF3D1002007B0CB
:1005A00030BDC046944C0000F0B5474680B40C1CEA
:1005B0009046002810D1002A0ADD8F18094E0A4DF6
:1005C0003068211C2B6898470134BC42F8D101E007
:1005D00000239846404601E00120404204BC90467A
:1005E000F0BDC046B8020020B0020020F0B547467A
:1005F00080B40138022815D8002A10D0151C0E1C12
:1006000000240C4B98460C4F43461868315D3B68FC
:100610009847002809DB0134A542F5D100E0002409
:10062000201C04E00120404201E00120404204BCC3
:100630009046F0BDB8020020B402002070B582B030
:10064000051C0E1C00226B46DA80064C281C6B46EB
:10065000991DA0470028F9D16B4606331B883370DB
:1006600002B070BD950B000070B5051C8CB2034E36
:10067000281C211CB0470028FAD170BD690B00006E
:1006800010B582B06B46DC1D1048211C0122104BB6
:10069000984772B6BFF35F8F00220E4B1A700E4B55
:1006A0001B7821780D4AD1549B2B03D100220A4B91
:1006B0001A7002E00133084A13700122054B1A70C8
:1006C000BFF35F8F62B602B010BDC046300200209B
:1006D0000D0C00000800002064020020940100209E
:1006E000F0B591B08023DB05009300230193FF2236
:1006F00069460A8100228B72CB720124242168464C
:1007000044540131445401314354013143540A9358
:10071000053143540131435405930382C376027675
:100720000277427613238376427780235B03039319
:100730002F4B0C932F4B0D9301235B420E930F9382
:10074000E1235B0208932C4D2C4B1D602C4A2D4B52
:100750001A602D4A2D4B1A60281C2D496A462D4BD4
:1007600098472D4F3B68986800212C4EB0473B6856
:1007700058680021B0472E68301C294B98471F232A
:1007800018408440274B1C602A68D369002BFCD199
:100790003268023313433360174B1B68DA69002A4F
:1007A000FCD15A68802149020A435A600121124A49
:1007B000D171DA69002AFCD1DA69002AFCD15A68C1
:1007C000802189020A435A6001210B4A9171DA693A
:1007D000002AFCD100201449144B984704220C4BEA
:1007E0009A75FD32FF320F4B1A6011B0F0BDC04652
:1007F000030004000300050030020020B8020020BE
:1008000069060000B40200203D060000B00200208E
:10081000000800423108000070010020953D0000F2
:100820008D0E000000E100E081060000510E000086
:10083000F0B55F4656464D464446F0B491B0051CAF
:100840000C1C161C2960081CB94B9847226805230C
:10085000D20700D563E122681733920700D55EE125
:10086000B4490A6A871C1B3BBB4013430B620FA9A8
:100870002D27F35D0B701430C3B20293181CAE4BDE
:1008800098470298AD4B9847F05D0021AC4B9847D4
:10089000F37A6B712423F35CAB712523F35CEB716A
:1008A000F37E2B72337F6B722B689A46181CA04B19
:1008B0009847143000220E2306A98C4663441A8000
:1008C000338A99468023DB01994519D004D88023C7
:1008D0009B0199450AD003E1C023DB0199450AD069
:1008E00080231B02994500D1FFE0F9E010239846D0
:1008F0000F3B0793FDE008239846073B0793F8E07A
:1009000033689B46F368029373690393337E0493C1
:100910002623F35C059372680692002A15D0802383
:100920005B059A4236D12723F35C002B36D1336A1C
:100930009846C0B2834B9847011C40460E2206AB36
:100940009C466244804B984725E008239846002344
:1009500007932723F35C002B0BD043460093306AA8
:10096000B16A0E2206AB9C466244079B774FB8479C
:1009700011E0336A1F1CC0B2724B9847011C4346FA
:100980000093381C0E2206AB9C466244079B6F4FB7
:10099000B84700E00020031E00D0C0E0737E002BAB
:1009A00002D0B37E524693732A68069FD369002B08
:1009B000FCD10E3306AA944663441B8852469381A9
:1009C000029B5A461343039A13433B434A4613433D
:1009D000049A12021343059A57071F432723F35C17
:1009E000002B01D104331F43337F5902727E9302DF
:1009F0000B43727F120213432422B25C520413434E
:100A00002522B25C12041343F17A19433389FF2B78
:100A100004D0802252041743194305E0F37E002BD3
:100A200002D08023DB041F432C23F35C002B03D173
:100A3000474B9B789B0701D580231F432A68D369C6
:100A4000002BFCD1534659602A68D369002BFCD196
:100A500053461F600EAB80221A7000225A70DA7063
:100A60009A70336B0A93736B0B93B36B0C93F36BAA
:100A700002930D9300270EAEF9B2BB000AAA985854
:100A8000002802D1201C334B9847431C05D03070FE
:100A9000000CC0B2311C304B98470137042FEBD10A
:100AA0000023EB602B616B61AB61EB612B62AB628E
:100AB0006B620022EB85AB853033EA540133EA5494
:100AC0000133EA540133EA542868194B9847041C4F
:100AD0002249234B9847A400224BE55000231EE0F7
:100AE000102398460023079303E00323984600232E
:100AF000079333689B46F368029373690393337ECD
:100B000004932623F35C059372680692002A00D1B1
:100B10001FE780235B059A4200D104E73EE7181CDB
:100B200011B03CBC90469946A246AB46F0BDC046CB
:100B30006D05000000040040E1170000551700009B
:100B400099030000FD170000A9010000D101000079
:100B500000200041E5030000D9180000AD0C0000A2
:100B6000510E0000BC02002010B50368C4791C229D
:100B7000002C0DD0C08D80B2173A002808D1DA6958
:100B8000002AFCD1198502211A7E0A42FCD00022DB
:100B9000101C10BD10B5046882791C23002A33D0C4
:100BA000828D92B2173B002A2ED1227E52072BD57E
:100BB000E369002BFCD1638BDBB29A0621D09A0744
:100BC00003D50223638318331EE05A0703D5042399
:100BD00063831A3318E0DA0703D5012363831233E2
:100BE00012E0DA0605D5628B102313436383422398
:100BF0000AE09B0605D5628B2023134363834123C0
:100C000002E0238D0B800023181C10BDF0B5574661
:100C10004E46C0B483B01723002A3CD084790533F4
:100C2000002C38D08A4681460568171C002604240B
:100C30002CE02A7E224204D1012B23D0013B002B41
:100C4000F7D16B46991D00230B804846154B9847FA
:100C5000002819D1731C99B26B4606331B88524683
:100C600093554A465279012A05D1B21C96B21B0A05
:100C70005246535400E00E1C7A1E97B2002F05D145
:100C8000002308E0122306E0031C04E02B7E23422D
:100C9000D7D1054BCDE7181C03B00CBC91469A4642
:100CA000F0BDC046950B0000FFFF0000F8B58000C6
:100CB000654BC5582C68E369002BFCD1237EA67DCB
:100CC0001E403123EB5C3022AF5C1F40F30722D57E
:100CD000EB8D9BB2002B1CD0AA6A1378DBB2511C9F
:100CE000A9626979012901D09BB204E05178090217
:100CF0000B430232AA62DB05DB0D2385EB8D013B42
:100D00009BB2EB85002B06D1013323750133A3750C
:100D100001E001232375B30709D5022323750022BF
:100D20003133EA54FB0702D5281CEB689847730758
:100D30006AD5AB8D9BB2002B64D0638BDBB21A07F4
:100D400002D43F22134001E037221340002B37D05A
:100D50009A0707D51A223223EA54628B303B134399
:100D6000638327E05A0707D51E223223EA54628B99
:100D70002E3B134363831DE0DA0707D5132232238A
:100D8000EA54628B313B1343638313E0DA0607D5E1
:100D900042223223EA54628B223B1343638309E0ED
:100DA00020221A4206D021323223EA54628B123BAF
:100DB000134363837B0727D5281C6B69984723E07F
:100DC000238DDB05DB0DDAB2696A0A706A6A511C91
:100DD00069626979012904D11B0A53706B6A013376
:100DE0006B62AB8D013B9BB2AB85002B0CD1043306
:100DF000237500222E33EA54BB0705D5281C2B6926
:100E0000984701E004232375F30607D510232375C3
:100E10002376FB0602D5281CEB699847B30607D555
:100E20002023237523763B0702D5281CAB699847FE
:100E3000330707D5082323752376BB0602D52B6A13
:100E4000281C9847F8BDC046BC0200207047C04629
:100E5000F0B50A4B1B78002B0CD1094F094E0A4DF7
:100E60000024DE515A1914600433182BF9D10122E1
:100E7000024B1A708000024BC150F0BD6502002089
:100E8000680200204D0E0000BC02002010B582B0A8
:100E9000041C684605490622054B9847201C054B53
:100EA00098476B46185602B010BDC046AC4C0000C7
:100EB0003D3D00006D05000008B5024B1B68002099
:100EC000984708BD6802002008B5024B5B68012006
:100ED000984708BD6802002008B5024B9B680220B5
:100EE000984708BD6802002008B5024BDB68032064
:100EF000984708BD6802002008B5024B1B69042012
:100F0000984708BD6802002008B5024B5B690520C0
:100F1000984708BD68020020F0B5474680B48000BD
:100F20000D4BC7583B68DE6A7B6B1E40BB6B1E4097
:100F300000240A4B98464346E5582E4205D03B19FB
:100F40005B68381C98473B68DD620434302CF2D172
:100F500004BC9046F0BDC046D4020020B44C000052
:100F600008B50020014B984708BDC046190F000086
:100F700008B50120014B984708BDC046190F000075
:100F800008B50220014B984708BDC046190F000064
:100F90000C4B1B68002B10D1EFF31083002B09D1F1
:100FA00072B6BFF35F8F0022074B1A700132074BF6
:100FB0001A7002E00022054B1A70024A13680133CE
:100FC0001360704780020020080000208402002087
:100FD000084B1A68013A1A601B68002B09D1064BAE
:100FE0001B78002B05D00122044B1A70BFF35F8FD2
:100FF00062B67047800200208402002008000020B2
:10100000F0B5474680B482B001AC0126667000237B
:101010009846A37026701320211C0E4DA8470E4F32
:1010200080231B03BB611020211CA84780235B0287
:101030007B611720211CA84780231B047B6143464A
:10104000237066701C20211CA84702B004BC904687
:10105000F0BDC0465D1000000044004100B583B003
:1010600001AB80221A700A785A704A789A708A788E
:10107000DA70191C014B984703B000BDD918000065
:1010800008B5082803D880001B4B1B589F4600203A
:1010900031E01A4B18692EE0194B186A8005800F51
:1010A000184BC340181C26E0144B586923E0134B1F
:1010B0001B68022018401ED011491022CB681A422A
:1010C000FCD00E4B1B685B0714D500200E4B9847D5
:1010D0000A4B9B681B041B0C58430CE05023084A26
:1010E000D35C00205B0706D5044BD86803E0802062
:1010F000000200E0054808BDE44C00008802002022
:101100000008004000127A00FD170000006CDC02AD
:1011100070B50C4C236A0178857842780120024032
:1011200092014026B3431343021C2A40D2017F3070
:101130008343134303220A40120203490B40134323
:10114000236270BD00080040FFFCFFFFF0B557466A
:101150004E464546E0B41C4EB3699C46417805783E
:101160000779C378994644798378012003409B002E
:101170009A4604229046624643469A43131C5246BE
:101180001A43131C0140C900082293430B434A46EB
:101190000240920140218B4313430740FF0180220C
:1011A00093433B43793A15402D02084F3B402B4374
:1011B00004402003064C1C400443B4611CBC904610
:1011C0009946A246F0BDC04600080040FFF8FFFF68
:1011D000FFEFFFFFF0B55F4656464D464446F0B47C
:1011E00083B02E4EB38A9C46457803785A425A41C2
:1011F000914683789B46C37802799046477B027B71
:101200000192847B82682648426101204A4692000E
:10121000914604229246624651468A4394464A4683
:1012200061460A43944642460240D2009046082254
:101230009146624649468A439446424661460A437D
:10124000944603401B0110229046624641468A4361
:101250001343594601404901202293430B43019A0D
:101260000240920140218B4313430740FF0180223B
:1012700093433B43793A15402D020A4F3B402B43A1
:1012800004402003084C1C400443B48203B03CBC1F
:1012900090469946A246AB46F0BDC04600080040C5
:1012A00088020020FFF8FFFFFFEFFFFF10B5037A71
:1012B0009B061A0C43899B059B0D1343194C6360D5
:1012C000818843881943C379827913430B43427859
:1012D000D201134323600378042B0FD1037B9B06B9
:1012E000028A1343191CC3891B040F4A13400B4382
:1012F000A360216804230B43236011E0202B0FD14E
:10130000037B9B06028A1343191CC3891B04064AEC
:1013100013400B43034A9360136804490B43136063
:1013200010BDC046880200200000FF032404000016
:10133000082803D88000254B1B589F46172044E0FF
:10134000234A116A02230B43136200203DE0204A26
:10135000916902230B439361002036E01C4A118AF5
:1013600002230B43138200202FE0194A918A0223A3
:101370000B439382002028E016490B680222134396
:101380000B60134B9A84191C0E32CB681A42FCD0A6
:10139000104A91680E4BD96252689A6200229A8470
:1013A000191C1032CB681A42FCD00A4B1B689BB246
:1013B000074A9384002008E005494422885C022300
:1013C00003438B54002000E000207047084D0000CC
:1013D0000008004088020020F0B54F464646C0B4E1
:1013E00091B0C222D200614B9A6061494B681E22C3
:1013F00093431A3A13434B6001AB1A7000245D4DBE
:10140000E0B201A9A8470134252CF9D10CA800238A
:101410000370802212028260C37001220271037382
:1014200083730621417082704373534B98470520A4
:10143000524B98474D490222CB681A42FCD04B4987
:101440008A8A802313438B824D4D2B68DB045B0E0D
:101450001A0488694B4B034013438B610AA801238C
:10146000437083700024C4700371063303704471A9
:10147000454B98470420414B984705AB00225C80C0
:101480009C809A71DA713F2159813B3919705A70E9
:101490002B689B0E3F2B00D1203B05A80372B7237E
:1014A000DB000382072303733833C381374B98472C
:1014B00004A800254570012686700570344B9847B6
:1014C00006202E4B99469847324B984701AC6660F0
:1014D000657025726572052323700120211C2E4B37
:1014E0009846984701202D4FB84765702572657260
:1014F000042323701C3363600220211CC047022098
:10150000B8476660657006232370257265720320F4
:10151000211CC0470320B84726700020211C154B12
:10152000984700201E4B98470720C8470F49D022F4
:10153000CB681340D02BFBD11A4A0023137253728D
:101540009372D37201A94B700B724B7207330B70FD
:10155000043B4B600020104B984700200F4B9847EE
:1015600011B00CBC90469946F0BDC0460008004042
:1015700000400041E1170000D511000031130000C8
:1015800024608000FFFF80FF4D110000AD120000BD
:1015900011110000A9150000CD15000085160000EE
:1015A0005517000000040040064A916908230B43C8
:1015B00093610122044B1A70191C0B781342FCD161
:1015C0007047C04600040040000C004070B5061C87
:1015D000041C0D782D0205434B78002B02D080238C
:1015E000DB021D434B7A002B02D080231B031D43DB
:1015F0004868012818D9431E184210D1022806D97C
:101600000223002201325B009842FBD800E0002256
:1016100012023243141C80235B031D4304E00402C6
:10162000344380239B021D430B7A002B02D080237E
:101630009B031D430F4A53785BB2002BFBDB0E4B21
:1016400098470E4B1E700B4A53785BB2002BFBDBA6
:10165000084B9C601A1C53785BB2002BFBDB054ADD
:10166000516880235B020B401D435560044B984733
:1016700070BDC046000C0040910F0000080C0040F7
:10168000D10F000010B5041C0B4A53785BB2002B3D
:10169000FBDB0A4B98470A4B1C70074A53785BB236
:1016A000002BFBDB044A5368802149020B43536043
:1016B000044B984710BDC046000C0040910F00003D
:1016C000040C0040D10F000070B5041C1A4A537876
:1016D0005BB2002BFBDB194B9847194B1C70164A69
:1016E00053785BB2002BFBDB134E7068C004C00E56
:1016F000144B9847051C124B1C707668F602F60FC7
:10170000114B1C700C4A53785BB2002BFBDB0A4B6D
:101710009C68240AA4B20D4B9847002E07D1012CD7
:1017200007D9281C211C0A4B9847051C01E00134ED
:10173000E540281C70BDC046000C0040910F000021
:10174000040C004081100000080C0040D10F000084
:101750009D1E000010B5041C064B9847064B1C70DC
:10176000064A51888023DB010B435380044B984782
:1017700010BDC046910F0000020C0040000C00405C
:10178000D10F000010B5041C0F4B98470F4B1C7075
:101790000F4B5A881205100F59880E4A0A405A807A
:1017A00059880D4A0A405A80191C8022D2014B8860
:1017B0001342FCD1064902024888064B03401343FA
:1017C0004B80064B984710BD910F0000020C004063
:1017D000000C0040FFF0FFFFFFBFFFFFD10F000034
:1017E00010B50C7824020443024B9847A4B2024B74
:1017F0005C8010BD85170000000C004010B5041C73
:10180000064B9847064B1C70064B5C882405240F3A
:10181000054B9847201C054B984710BD910F0000C1
:10182000020C0040000C0040D10F0000C91600005F
:1018300030B5D378002B1ED11478802C04D0240628
:1018400080235B021C4300E0002453780225AB4355
:101850000AD19378002B03D180239B021C4302E022
:10186000C023DB021C4341605378013B012B12D89B
:10187000184B1C400FE041600B041B0CA024E40536
:10188000234383620B0CD024240623438362D37842
:10189000002B18D01CE00B041B0CA025ED052B43DE
:1018A000234383620B0CD0252D062B4323438362F5
:1018B000D378002B0CD1630305D59378012B01D18C
:1018C000816100E041615378013B012B00D88160C8
:1018D00030BDC046FFFFFBFF08B5031C0A1CC10951
:1018E0000020002904D15809C00105498C466044F4
:1018F0001F210B401E399940024B984708BDC04636
:1019000000440041311800007047C04608B5054B3F
:101910009847054B9847054B9847054B9847054B0B
:10192000984708BDD91300000110000009190000F4
:101930000919000009190000FEE7C04670B52E4BDA
:101940002E4A9A4203D02E4B2B4A9A4204D32D4B57
:101950002D4A9A4210D31EE02C4A294B03339B1A7E
:101960009B0801339B000022234824498C58845053
:1019700004329A42FAD1EAE7254A224B03339B1AF2
:101980009B0801339B0000221F480021141821608E
:1019900004329A42FAD11F4AFF211F4B8B439360B6
:1019A000FD3990235B001D4AD1501D48C3780324A4
:1019B000A34302221343C370C3780C26B343082108
:1019C0000B43C370174B987B3025A843051C202080
:1019D00028439873987BB04301439973997BA14343
:1019E0000A439A73104A516880230B4353600F4B8C
:1019F00098470F4B9847FEE700000020E450000096
:101A000074010020FC02002074010020040000206A
:101A10007801002000ED00E00000000000700041AF
:101A2000005000410048004100400041F13C0000EE
:101A30001D1E0000031C064A1268002A02D1054937
:101A4000034A1160024A1068C31813607047C04609
:101A5000A002002000230020012040427047C04621
:101A600080239B014B6000207047C04601207047D7
:101A700000207047F0B54F464646C0B485B0151CEF
:101A8000081C234B9847234B9847234E234A244B4B
:101A9000B047021C0B1C234C00202349A047002206
:101AA000224BB047224FB8470190281C214B984742
:101AB00002900391019B58001F4DA84700221F4B25
:101AC000A047021C0B1C02980399A047B847041CAE
:101AD000A8471B4A1B4BB047B847231A9846002B10
:101AE00010DD0024184F80231B0499461E1CBE6184
:101AF0000198164DA8474B467B610198A8470134D1
:101B00004445F4D105B00CBC90469946F0BDC046A2
:101B10006125000005390000893200007F6ABC742D
:101B200093180C40412C00000000F03F80842E41AF
:101B3000BD370000A13800002938000000408F4068
:101B4000295C8FC2F528DC3F0044004151010000B0
:101B500070B503783A2B03D0013003783A2BFBD1D0
:101B60004378642B01D0441C1EE0C41C00222C4B83
:101B70001A602C4B1D68C278AB185B785B0712D5D6
:101B80002749042601340B689800C3185B00303ADB
:101B90009B180B602278A81840780642F2D1002BDF
:101BA00001DD214A1370013423786F2B0AD1A37809
:101BB0001A1C303A1A490A60333B042B01D81B4BDC
:101BC0001A7004342378622B1ED1A11C0022144BFE
:101BD0001A60144B1D68A378EA18527852070ED584
:101BE0000F480426013102689400A2185200303BCD
:101BF000D31803600B78EA1852781642F2D1084BDA
:101C00001A680B4B1A604C1C0A48094B19680A4B9E
:101C100098474000094B1860094B1C6070BDC046D6
:101C2000E40200200C010020090000200A0000202E
:101C30000401002060EA0000BD1F0000E80200204F
:101C4000F002002070B55D4B1C6823780020002B4B
:101C500000D1B2E000225A4B1A605A4B1D6821781D
:101C60006B185B785B0718D5554A04260134136856
:101C70009800C3185B0030395B181360217868182E
:101C800040780642F2D1002B07D04F4A1068191C49
:101C90004E4B98474E4B186007E04E4B19784A4B15
:101CA00018684A4B98474A4B186000224A4B1A70F2
:101CB0002378613BDAB2062A1ED89300474AD358EC
:101CC0009F460122444B1A7016E00322424B1A70C1
:101CD00012E00522404B1A700EE006223E4B1A70AD
:101CE0000AE008223C4B1A7006E00A223A4B1A70AE
:101CF00002E00C22384B1A706378232B01D0013498
:101D000004E0354A137801331370023423782E2B04
:101D100007D12F490A68D30F9B185B10D3180B60AB
:101D200001342378ED186A78520704D5303B2C4AE9
:101D30001370013403E02B4B1A78294B1A70284B8F
:101D40001A7823782C3B5842584124181B4B1C60AE
:101D5000214B1B78002B2BD023490978521A5100B4
:101D60008A189200D2189200204C214BD058A047DC
:101D7000021C0B1C1F4DA847021C0B1C00201E49F7
:101D80001E4DA8471E4B98471E4B9847011C104DEF
:101D900017202A681C4B98472868A04700221B4B35
:101DA0001B4CA0471B4B98471B4B9847012004E056
:101DB000074B1868184B9847012070BDF0020020AF
:101DC000E40200200C010020E8020020BD1F0000FA
:101DD000E002002009000020EC0200202C4D000051
:101DE000F40200200A000020000100202938000031
:101DF0000C000020F125000080842E41412C0000C1
:101E0000AD390000F5210000751A00000000E03F28
:101E100089320000BD3700007D01000070B5134B12
:101E20009847134B9847134B9847EFF31083124989
:101E3000002B00D011491248124B9847124D2C1C10
:101E4000124E2B78002B04D1013323703068104BD5
:101E50009847104B98470028F3D100220A4B1A707C
:101E6000C8300D4B9847002070BDC0460D190000CA
:101E7000E106000015010000804D0000844D0000C7
:101E8000884D0000613D0000A402002008010020F0
:101E9000511B0000451C00007D010000002243088A
:101EA0008B4274D303098B425FD3030A8B4244D322
:101EB000030B8B4228D3030C8B420DD3FF22090264
:101EC00012BA030C8B4202D31212090265D0030B23
:101ED0008B4219D300E0090AC30B8B4201D3CB0319
:101EE000C01A5241830B8B4201D38B03C01A52415B
:101EF000430B8B4201D34B03C01A5241030B8B425D
:101F000001D30B03C01A5241C30A8B4201D3CB0247
:101F1000C01A5241830A8B4201D38B02C01A52412C
:101F2000430A8B4201D34B02C01A5241030A8B422F
:101F300001D30B02C01A5241CDD2C3098B4201D347
:101F4000CB01C01A524183098B4201D38B01C01AC5
:101F5000524143098B4201D34B01C01A524103093C
:101F60008B4201D30B01C01A5241C3088B4201D3EB
:101F7000CB00C01A524183088B4201D38B00C01A98
:101F8000524143088B4201D34B00C01A5241411ABF
:101F900000D20146524110467047FFE701B50020CC
:101FA00000F0FCF802BDC0460029F7D003B5FFF7EA
:101FB00075FF0EBC4243891A1847C04603460B43BF
:101FC0007FD4002243088B4274D303098B425FD332
:101FD000030A8B4244D3030B8B4228D3030C8B425E
:101FE0000DD3FF22090212BA030C8B4202D3121244
:101FF000090265D0030B8B4219D300E0090AC30B19
:102000008B4201D3CB03C01A5241830B8B4201D3C5
:102010008B03C01A5241430B8B4201D34B03C01AAE
:102020005241030B8B4201D30B03C01A5241C30A26
:102030008B4201D3CB02C01A5241830A8B4201D397
:102040008B02C01A5241430A8B4201D34B02C01A81
:102050005241030A8B4201D30B02C01A5241CDD226
:10206000C3098B4201D3CB01C01A524183098B4271
:1020700001D38B01C01A524143098B4201D34B015A
:10208000C01A524103098B4201D30B01C01A5241BD
:10209000C3088B4201D3CB00C01A524183088B4244
:1020A00001D38B00C01A524143088B4201D34B002D
:1020B000C01A5241411A00D201465241104670479F
:1020C0005DE0CA0F00D04942031000D340425340A4
:1020D00000229C4603098B422DD3030A8B4212D364
:1020E000FC22890112BA030A8B420CD38901921196
:1020F0008B4208D3890192118B4204D389013AD0D3
:10210000921100E08909C3098B4201D3CB01C01AA7
:10211000524183098B4201D38B01C01A52414309BA
:102120008B4201D34B01C01A524103098B4201D3A8
:102130000B01C01A5241C3088B4201D3CB00C01A15
:10214000524183088B4201D38B00C01A5241D9D22D
:1021500043088B4201D34B00C01A5241411A00D2AE
:102160000146634652415B10104601D34042002BAA
:1021700000D54942704763465B1000D3404201B529
:10218000002000F00BF802BD0029F8D003B5FFF7DE
:1021900015FF0EBC4243891A1847C0467047C04617
:1021A000F0B54F46464605042D0C2C1CC0B4170450
:1021B000160C3F0C9946030C7C4375435F437343F5
:1021C0007D19260CAD199C46AF4203D980235B02D2
:1021D0009846C4444B465143434324042E0C240CDC
:1021E0002D0466442C1959188919201C0CBC9046E2
:1021F0009946F0BD9E2110B5C905041C01F096FC5E
:10220000002803D1201C00F08BF910BD9E21201C5A
:10221000C90500F007F800F083F980231B069C46EF
:102220006044F2E7F8B54A00430244004D02C00F93
:10223000240E061C9B09120EC90FAD09FF2A00D1FE
:1022400075E001277940884250D0A01A002800DCB0
:102250008FE0002A1ED1002D00D075E05A0704D06F
:102260000F221A40042A00D0043380220120D20415
:102270001A403040002A32D00134FF2C00D184E0D3
:102280009B015B0AE4B25B02E4055B0A2343C007DF
:102290001843F8BDFF2CE1D08022D20415431B283F
:1022A0007ADD01255B1B5A015DD59B019F09381C16
:1022B00001F046FC05388740844269DC001B1F247E
:1022C0003A1C431C201ADA408740131C7C1EA7418D
:1022D00000243B43C2E7131E45D100230020DB0846
:1022E000FF2C28D05B025B0AE4B2CCE7A11A0029DC
:1022F0005BDD002A2ED0FF2CB0D08022D204154303
:102300001B2974DC2F1C2022CF40511A8D40691EDE
:102310008D413D435B195A0125D50134FF2C74D002
:1023200001217E4A194013405B080B4396E7002DBC
:1023300000D088E785E7002B27D08022D203134303
:102340005B025B0AFF249EE701380028AAD0FF2C1D
:10235000A5D183E7002D00D180E701390029D9D02C
:10236000FF2CCDD17AE75A0700D079E70120304021
:10237000B5E7002825D1621CD2B2012A55DD5F1BCA
:102380007A012DD5EF1A0E1C91E7FF2400237AE77E
:10239000624B241A3B4061E7291C2022C140101ADD
:1023A0008540681E85410D437CE7002946D1621CAB
:1023B000D1B201292BDDFF2A26D0EB185B08141CB3
:1023C0004CE7002C15D0FF2A1AD08024E4044042A8
:1023D00023431B284DDD0123EB1A141C0E1C62E75E
:1023E000002F00D063E700230020002477E70125B9
:1023F00090E7002B39D0C0430028EDD0FF2AE8D168
:102400002B1CFF240E1C29E7FF24002367E7002C68
:102410005AD1002B7FD0002D00D11FE75B195A0144
:10242000A1D53E4A0134134018E7002C15D1002BEA
:102430002FD1002D5ED02B1C0E1C0FE7002C21D1BC
:10244000002B54D0C943002904D0FF2A4CD01B29AB
:1024500058DD01235B19141C5DE7002B23D1002DEF
:102460004BD02B1C0E1CFF24F8E62B1C141C0E1C3E
:10247000F4E61E1C2024C640201A8340581E8341C7
:102480003343A9E7FF2A2FD08024E40449422343A1
:10249000DDE7002D00D1E1E65A1B500100D41AE718
:1024A000EB1A0E1CDAE6FF24002D00D1D6E68022BE
:1024B000DB08D203134204D0ED08154201D12B1CD6
:1024C0000E1CDB00FF24C9E6002B0DD0FF24002DDD
:1024D00000D1C3E68022DB08D2031342F1D0ED081D
:1024E0001542EED12B1CECE72B1CFF24B6E62B1C6F
:1024F000141CB3E6231C0020F1E6802300209B047B
:10250000FF24ECE61F1C2024CF40611A8B40591E8B
:102510008B413B439EE72B1CA0E6C046FFFFFFFB21
:102520004202510A4200C30F120E00207E2A0DDD26
:102530009D2A0CDC802000040143952A0ADC9620A9
:10254000821AD1400A1C58424240D0187047034AB0
:102550009818FBE7963A91400A1CF4E7FFFFFF7FCB
:1025600010B5041E35D001F0EBFA9E21091A962908
:1025700009DC082830DD021C231C083A93405B026A
:102580005B0AC8B220E099290CDD0522231C121A2F
:10259000D3401A1C031C1B339C40231C5C1EA3410C
:1025A00013431C1C052801DD431F9C400F4B234097
:1025B000620704D00F221440042C00D004335A01C7
:1025C0000ED49B015B0AC8B25B025B0AC0051843CC
:1025D00010BD00200023F7E763025B0AC8B2F3E7EF
:1025E0009F21024A091A1340EBE7C046FFFFFFFB99
:1025F000F0B5454657464E4694464C000A03C90F6F
:10260000E0B488460E1C1903470FC500480A61460E
:10261000490F01436046520A1743C0005A00640D37
:10262000520DDB0F8446984500D1A7E0A01A002880
:1026300000DC01E1002A3DD163460B4300D0D4E029
:102640006B0700D188E00F232B40042B00D183E0DF
:102650002A1DAA42AD4180236D427F191B043B40D5
:102660004646151C002B00D17CE0CC4B01349C422B
:1026700000D1FDE03A1CCA4BED081A405007640532
:1026800052020543120B640D002112030B0D1B05B2
:102690006405120B1A436308C24CF60714401C432E
:1026A000640064083443281C211C1CBC90469946D5
:1026B000A246F0BDB94B9C42C2D080231B041943F3
:1026C000382800DDECE01F2800DD21E120220E1C6F
:1026D0006346121A9640C340334366469640321C06
:1026E000561EB24113430A1CC240EB1A9D42B6412A
:1026F0001D1CBA1A7642971B3B0200D497E07A025F
:10270000560A002E00D1B6E0301C01F019FA031C65
:10271000083B1F2B00DDB7E09E40371C28262A1CF3
:10272000361AF240161C9D403E439C4200DDB2E04A
:102730001C1B621C1F2A00DDD8E01F23291C1C1B48
:10274000331CA540A340D1406C1EA541D64019437F
:102750000D43371C002473E780231B043B4046468F
:1027600000D082E78D4BED0878070543FA089C42BC
:1027700032D012036405120B640D85E7A31A002BF7
:1027800000DC94E0002A3CD0844A944200D157E710
:10279000802212041143382B00DC05E16346194303
:1027A000481E81410022C8B24019A8429B41051C25
:1027B000D2195B42D7183B0239D5784B01349C4281
:1027C00000D14CE10120764A6B083A40284018437A
:1027D000D5070543570833E72B1C134348D0802304
:1027E0001B031A431203120B4EE70138002878D15D
:1027F0006346EE1AB5429B417A1A5B42D71A351CE2
:102800007AE7021C0A4300D11AE7013B002B00D0F3
:10281000F2E04019A8429B41CA195B42D718051C37
:10282000C9E7131C334300D118E1171C351C464679
:102830006B0700D007E795E700287AD1621C5205A4
:10284000520D012A00DCFBE06246AA1A9542B6410D
:102850009146781A7242861A320200D493E0624698
:10286000551BAC458041CF1B40423E1A984648E775
:102870000022002508E7281C01F062F92030031C23
:10288000083B1F2B00DC47E7283885402E1C00251D
:102890009C4200DC4CE7424AE41A1640371CCFE663
:1028A000634619434B1E99410022CBB21DE7002B12
:1028B00000D0F2E0601C43055B0D012B00DCA4E0BE
:1028C000364B984200D121E163465C19AC429B41F2
:1028D000CF195B42FA186408D50725435708041C32
:1028E000AEE62E4B9C4200D0EAE6A9E6211C331C42
:1028F0001F39CB40191C202A00D182E03F231C1B2A
:10290000A64035436E1EB54100270D4300248EE7D7
:10291000031C0E1C203BDE40202874D040231B1AD1
:1029200099400B1C62461343591E8B4100223343CE
:10293000DBE6002C50D0194CA24200D1A8E0802444
:10294000240440422743382800DDD9E01F2800DD59
:1029500039E120243E1C241AA640B0462E1CA14674
:10296000C640444626434C46A5406C1EA541C74080
:1029700035436046451BCF1BAC45894149427F1A10
:10298000141C9846B8E64B464D46334300D0B8E693
:102990000026002700240025E4E6C046FF070000CB
:1029A000FFFF7FFFFFFF0F801F2B5BDC2022081C37
:1029B000D21A9040814660469246D8404A4610431B
:1029C0008146524660469040021C501E8241484655
:1029D00010430A1CDA40E7E63C1C2C4358D0C043A5
:1029E000002851D16046451BAC458041CF1B404279
:1029F0003F1A141C98467FE68F4A944200D0CAE6DC
:102A00001EE600267DE700238CE73B1C2B43002CB1
:102A100000D0BDE0002B00D1F5E063460B4300D1B0
:102A20000EE663465B19AB428041CA194042171853
:102A30003A0200D4FCE0814A1D1C17400134FFE536
:102A40003A1C2A43002C51D1002A00D085E062466E
:102A50000A4303D00F1C65469846F1E5002600277F
:102A600000257FE6181C0A1C2038C240202B00D10C
:102A7000A7E04020C01A8140081C63461843411E4D
:102A80008841104300228FE66B4CA24200D05AE7E7
:102A90000F1C6546141C9846D2E5002C3AD1381C10
:102AA000284371D0DB43002B18D0634882426BD09F
:102AB000382B00DD9DE01F2B00DDA7E020203C1C13
:102AC000C01A8440A1462C1C8246DC404846044380
:102AD00050468540681E8541DF4025436544654575
:102AE0009B417F185B42FF18141C64E6002A19D131
:102AF00062460A4377D00F1C654698464E4C9FE5C8
:102B00003D436F1EBD410027EDB232E7041C002794
:102B1000002527E64848824236D0802000045B42E8
:102B20000743C5E762460A4349D08024ED08780789
:102B3000FA0824032843224209D0CE08264206D1AF
:102B400062464F07381CD20810439846321CD20008
:102B5000470F1743C500384C72E562460A4300D15F
:102B60006EE56246AE1AB5429241781A5242821A16
:102B7000100200D455E66246551BAC458041CA1B85
:102B80004042171A98465BE50F1C6546141C57E532
:102B9000002B34D063460B4311D08024ED08780716
:102BA000FA08240328432242D1D0CB082342CED1B5
:102BB00062464F07381CD20810431A1CC7E71E4C48
:102BC0003EE5002059E7041C3E1C203CE640341C36
:102BD00020282BD04026301A87403D436F1EBD4130
:102BE00000272543C5E680270026FF03124C002559
:102BF000B8E53D436F1EBD410027EDB26EE70F1CE7
:102C000065460D4C1CE50F1C654619E51C1C381C5F
:102C1000203CE040041C202B0CD04020C31A9F40D5
:102C20003D436F1EBD410027254357E70027D4E7EA
:102C30001D1CFCE50027F3E7FF070000FFFF7FFFF7
:102C4000F0B55F4656464D464446F0B40F0387B094
:102C500098464D003B0BCC0F061C924681469B4686
:102C60006D0D01946BD0664B9D4235D080275B463D
:102C70007F031F43F3009946624BFF00400F9C46C1
:102C800007430023BB4600266544009342461703D2
:102C90005000D20F53463F0B400D904600D172E0DA
:102CA000574A904267D080235B031F435346554ADF
:102CB0005B0FFF001F43944653460021DB00604436
:102CC0004246624092462D1A0E430F2E00D9A1E0D3
:102CD0004D48B600805987465B461E4300D076E0DB
:102CE00000239B469946023308260093CEE7994677
:102CF0004346BB4601930091009B022B6BD1019B85
:102D00009A46002153460122002789461A403C4B2F
:102D100000213F030C0D24053F0B27433B4C1B05B3
:102D200027401F437F00D2077F0817434846391CBE
:102D300007B03CBC90469946A246AB46F0BD034363
:102D40003ED05B46002B00D19CE1584600F0F8FED7
:102D50002823311C1B1A021C5F46D940083A9740B1
:102D60000B1C96403B439B46B1460023284D002652
:102D70002D1A00938AE7524603213A43A0D1002737
:102D8000002302219CE752463A4315D0002F00D180
:102D900085E1381C00F0D4FE021C28215046891A17
:102DA000131CC8405146083B99409F400B1C0743E9
:102DB00017480021801A83E70027002301217FE7BD
:102DC00000239B4699460133042600935EE70323C4
:102DD0000C2600935AE7032B00D13CE2012B00D0D4
:102DE000BFE11A1C019B1A400021002300278946DD
:102DF0008EE700238027994600223F03004B87E798
:102E0000FF07000001FCFFFFA84E0000FFFF0F803E
:102E10000DFCFFFFBB4500D951E100D14CE14A4612
:102E2000039200225C469046013D180E3F02384353
:102E30001B020193030C994603041B0C4946061C14
:102E4000201C1F1C0093FFF729F8021C7A430290F4
:102E50004946201C171CFFF7A7F8039B09041B0C0D
:102E600019438F420CD9029B8919013B8E4200D92C
:102E700052E18F4200D84FE1029B8919023B029335
:102E8000CC1B201C4946FFF709F8009F83464743A7
:102E90004946201CFFF788F8039A0B041404240CFD
:102EA00023439F420DD95A469B19013A9E4200D9AD
:102EB00030E19F4200D82DE10222524294469B19F4
:102EC000E344029ADB1B17045A463A439346019C9B
:102ED000170C220C101C04925A4611042204120CE6
:102EE000141C090C7C4305924A4341434743611833
:102EF000100C09188C4203D9802040028446674494
:102F00000C0C12040804120C3C198118A34200D2C4
:102F1000E5E000D1DFE01F1B43465C1AA04592416B
:102F20005242BF1AB74200D10EE1381C4946FEF7A3
:102F3000B5FF009B029043434946381C9846FFF773
:102F400033F8230C0F041F43B8450CD9029BBF195B
:102F5000013BBE4200D9FBE0B84500D8F8E0029B37
:102F6000BF19023B02934346FF1A4946381CFEF73D
:102F700095FF009B039043434946381C9846FFF752
:102F800013F824040904240C214388450CD9039B1D
:102F90008919013B8E4200D9DCE0884500D8D9E090
:102FA000039B8919023B03934346C91A029B039A68
:102FB0001B04059C1A43100C13049146221C049F09
:102FC0001B0C5A4344437B437843E318170CDB192B
:102FD0009C4203D980246402A44660441C0C120461
:102FE0001B04120C00199B18814200D296E000D1FC
:102FF000FCE04A4601231A4391469B4BEB18002BF9
:1030000000DC99E04A4652070AD00F2249460A409E
:10301000042A05D0043149459241894652429344DD
:103020005A46D20106D55A46904B1A408023934601
:10303000DB00EB188E4A934200DD62E64A465946B1
:10304000D208490711435A46894657025146012280
:103050005B053F0B5B0D0A405AE680205A46000391
:10306000024208D0074206D107433F0399463F0B6F
:103070004246804B4CE65F4607433F033F0B221C12
:103080007C4B45E600F05CFD031C2030272800DC6B
:103090005EE6083B9E400023B346994665E65046EF
:1030A00000F04EFD021C2032272A00DC75E6574650
:1030B0000838874000237BE6994500D2AFE65A46A0
:1030C000594654084A46C8075208024303924A46E2
:1030D000D2079046A9E60027884500D31CE7019F48
:1030E0005A46BC46E044B845BF417F42BF19FF186D
:1030F000013ABE4206D2BC425FD800D19FE03F1BDE
:10310000934609E7B742FAD1019B4345F3D9371BF0
:10311000934601E79346D4E60293B1E64A468919FD
:10312000013A8E4218D99146814200D061E7019A56
:103130009A4200D05DE760E74F4F7F1B382F13DDC9
:10314000012253461A404FE601235B42994654E759
:10315000029308E7039327E788423CD874D091464E
:1031600047E7019B9A4648E71F2F44DC434B4A46FA
:103170009C465B466544FA40AB4013434A46AA402E
:10318000151C6A1E95415A46FA402B43171C5A07D4
:1031900009D00F221A40042A05D01A1D9A429B41D9
:1031A0005B42FF18131C3A023ED553460122002110
:1031B0001A40002701238946AAE502235B429C4668
:1031C000019AE3449446E04490459B415B429B193D
:1031D000DF193F1BA0E6019F4A467C00BC42BF416D
:1031E0007F42BF19023AC91901949CE7002B95D17F
:1031F000002201929BE75A46214B5B1BDA40202FAD
:1032000027D0204B9C465B466544AB4049460B4368
:10321000591E8B411343072200271A4007D00F2263
:1032200000271A40042AB8D17A077F023F0BDB0837
:1032300013439946012253461A40002368E541454D
:10324000BBD89346002767E6019C9C42C3D39146B6
:103250006DE70023DAE780275B463F031F433F0308
:103260003F0B019A034B53E5FF030000FFFFFFFEF6
:10327000FE070000FF07000002FCFFFF1E04000025
:10328000E2FBFFFF3E040000F0B55F4656464D46A8
:103290004446F0B4051C061C080387B099464F004D
:1032A000030BCC0F92469B467F0D019467D06C4B6D
:1032B0009F4236D080205B4640031843C0006B0F0E
:1032C0001843684B83469C4600239846EE006744AB
:1032D00000934B4649461D03C90F5B0052462D0B18
:1032E0005B0D894600D16EE05D498B4264D0802041
:1032F0005C4940038C4600210543ED00500F054317
:10330000D20063444846FF187B1C9A46009B6040ED
:1033100002900B430F2B00D9ACE053489B00C358DD
:103320009F465B461D4300D082E0082300930023A4
:103330009B46023300269846CBE7029B0193434607
:10334000022B59D1012400250026019B1C40444B2F
:1033500000212D030A0D12052D0B1543434A1B05B1
:1033600015401D436D00E4076D082543301C291CE2
:1033700007B03CBC90469946A246AB46F0BD2B43F5
:103380004ED05B46002B00D185E1584600F0D8FBBB
:10339000021C2823291C9B1A161C5846D940083E9B
:1033A000B0400B1CB54003439B462E1C0023304FFE
:1033B0000093BF1A98468CE7514629432ED1002529
:1033C000002202219EE75146294323D0002D00D13F
:1033D00054E1281C00F0B4FB031C28215046C91AF4
:1033E0001A1CC8405146083A914095400A1C0543B2
:1033F0001F480021C31A85E7032B00D1C2E1012B2E
:1034000000D06DE14446019B00251C40E4B200233E
:1034100000269DE700250022012173E7032171E7C3
:103420000423009300239B4601330026984650E76F
:103430000C230093093B98464BE7802500242D037D
:103440000026074B84E74B46AB46161C0193884683
:1034500075E7029BAB46161C019388466FE7C04692
:10346000FF07000001FCFFFFE84E0000FFFF0F8098
:103470000DFCFFFF330C3604360C9C46331C140C39
:103480001204120C534398466346534399466346CD
:1034900063430193331C41466343090C4B445B185F
:1034A000994505D9802040028146019949440191FE
:1034B000190C039141460904090C1B045B18049381
:1034C0002B0C9846331C2D04290C4B43604600936B
:1034D0004346654658435E43009B4D431B0C99464B
:1034E000AE194E448446B54203D980235B02994607
:1034F000CC44350C2B1C0398634484460593009BF5
:1035000036041B041B0CF3189C4460460390584679
:103510000504060C280C84465043351C8146604641
:10352000654344434846000C8346724314195C4487
:10353000A24203D98022520293465D44220CAD1868
:103540004A461204120C24044046A41862464A4318
:103550007143464360460096464670438046100CD1
:1035600084468844E044414505D9802149028C467F
:1035700000996144009101980399844661449942FD
:103580009B415B4299460598434684461204120CBF
:103590001B049B1863449C46AB4683429B414046B8
:1035A0000A19CC44A2428941E344CC45B6415C4669
:1035B000000C8046494276425B426418334398448B
:1035C0008C428941AB459B4149425B4219430D1CEA
:1035D000009B4544EE187602E50D2E43B346049B4E
:1035E00056021E43731E9E415B46D20D3243660255
:1035F0001643DB010AD50123334076081E435B46A0
:10360000DB071E435B465B089B465746634BFB1834
:10361000002B5ADD720709D00F223240042A05D050
:10362000321DB242B6417642B344161C5A46D2010C
:1036300006D55A465A4B1A4080239346DB00FB18A6
:10364000584A934234DD0124029B00251C40002689
:10365000554B7DE680205B460003034208D00542BF
:1036600006D105432D032D0B4C46161C4E4B6FE621
:103670005D4605432D032D0B4B4B69E6504600F08C
:103680005FFA031C2033272B00DCA6E655460838DA
:1036900085400022ACE6281C00F052FA021C2032C1
:1036A000272A00DC75E6083885400026AB467DE613
:1036B0005A46F608520716435A4601245502029A02
:1036C0005B052D0B5B0D144042E6384DED1B382D8C
:1036D0000ADD0124029B00251C400026002337E65A
:1036E000019B5746029391E71F2D25DC304B321C7E
:1036F0009C466744BE405B46BB40371CEA407E1E8A
:10370000B74113433B431E1C5B46EB401D1C730734
:1037100009D00F233340042B05D0331DB342B641EB
:103720007642AD191E1C2B0220D50124029B0025D8
:103730001C40002601230BE65A461E4BDB1BDA40D9
:10374000131C202D1CD01C4A94465A466744BA408C
:10375000171C3E43721E96411E430723002533402B
:1037600007D00F2300253340042BD6D16B076D0201
:103770002D0B0124F6081E43029B1C400023E7E5A5
:103780000027E6E780255B4601242D031D43019BAE
:103790002D0323401C1C2D0B034BD9E5FF03000018
:1037A000FFFFFFFEFE070000FF07000002FCFFFF17
:1037B0001E040000E2FBFFFF3E0400000B0330B5D7
:1037C000134C1A0B4B00051C5B0DC90F0020A342C4
:1037D00010DD104883420EDC80200F4C4003024372
:1037E000E41A1F2C0ADD0D48C31ADA40131C4842A4
:1037F0004340581830BD0A4BC818FBE7281CE0406E
:10380000084CA44663449A40131C0343EFE7C046A8
:10381000FE0300001D040000330400001304000038
:10382000FFFFFF7FEDFBFFFF38B5041E16D0C50F6D
:1038300000D04442201C00F083F9174B1B1A0A28C1
:1038400021DC021C211C153291400A1C0B21081A94
:10385000C4405B052403240B5B0D03E0002500231B
:10386000002400220021101C24030A0D1205240B41
:1038700014430A4A1B0514401C436400ED07640806
:103880002C43211C38BD0B3884405B052403240BDA
:103890005B0D0022E6E7C0461E040000FFFF0F801C
:1038A00010B5041E10D000F04BF9144A121A0A2861
:1038B0001ADC0B23211C1B1AD94015300B035205AF
:1038C00084401B0B520D01E00022002300211B034A
:1038D000201C1C0B0B0D1B052343094C1205234018
:1038E00013435B00590810BD031C0B3B9C40520561
:1038F00023031B0B520D0024E8E7C0461E04000002
:10390000FFFF0F804200120E511C38B5C9B24302AE
:103910005D0AC40F012915DDE02189008C466D0781
:103920001B0B62440021281C0D0D2D052B431C4D43
:1039300052052B40520813435B00E4075B08234306
:10394000191C38BD002A15D1002D1FD0281C00F0ED
:10395000F7F80A281DDC0B232A1C1B1ADA40131C5B
:10396000021C153295400F4A1B03121A52051B0BFD
:10397000520DD7E7002D06D080221B0B12031343F4
:103980006D07094ACEE7084A0023CBE7002200234F
:10399000C8E7031C0B3B9D402B1C0025E3E7C046FA
:1039A000FFFF0F8089030000FF07000070B50B03C5
:1039B0004D00440F6D0D5B0A23436C1C6405C90F59
:1039C000C200640D012C2ADD3B4C2C19FE2C1ADCA4
:1039D000002C35DD8001451EA841DB000343520F5A
:1039E00013435A0704D00F221A40042A00D004338C
:1039F0008022D2041A4027D00134FF2C03D09B012F
:103A00005B0AE4B201E0FF2400235B02E4055B0AE9
:103A100023435B00C9075B080B43181C70BD002DD6
:103A200006D113430ED100245B025B0AE4B2ECE73B
:103A30001A43E8D08020DB0080040343FF24D0E752
:103A400017340CDA05230024DB08FF2CECD1002B03
:103A50002DD08022D20313435B025B0AD5E780247A
:103A6000164824042343401B1F280DDC144CA44695
:103A70006544AB401C1C131CAB405D1EAB41C240F7
:103A8000234313430024ACE71E1C0E4C641BE6408A
:103A9000341C20280DD00C4884466544AB401D1CC6
:103AA0002A43531E9A41131C2343002499E7002301
:103AB000ABE70025F4E7C04680FCFFFF9E03000053
:103AC00082FCFFFF7E030000A2FCFFFF8446081C6F
:103AD0006146FFE71FB500F0C5F8002801D40021BA
:103AE000C8421FBD10B500F049F84042013010BD7A
:103AF00010B500F0B7F8002801DB002010BD012050
:103B000010BDC04610B500F0ADF8002801DD002062
:103B100010BD012010BDC04610B500F059F80028B6
:103B200001DC002010BD012010BDC04610B500F022
:103B30004FF8002801DA002010BD012010BDC0465A
:103B40001C2101231B04984201D3000C10391B0ACD
:103B5000984201D3000A08391B09984201D3000991
:103B6000043902A2105C40187047C04604030202E8
:103B7000010101010000000000000000430270B5D7
:103B800042004C005D0AC30F4802120E460A240E82
:103B9000C90FFF2A05D0FF2C08D00120A2420BD06C
:103BA00070BD0120002DFBD1FF2CF6D10120002E8D
:103BB000F6D10120A242F3D1B542F1D18B4205D01A
:103BC000002AEDD1281C431E9841E9E70020E7E7D1
:103BD000F0B543024D024A0044005E0A240EC30FB2
:103BE0006D0A120EC90FFF2C0DD0FF2A31D0002C08
:103BF0000DD177427741002A23D1002D21D1002019
:103C0000002F0BD107E0002E28D1FF2A21D0002A57
:103C100005D08B4207D0584201231843F0BD002D38
:103C2000F9D08B42F7D19442F5DC04DBAE42F2D8F6
:103C30000020AE42F2D25842434101205B42184379
:103C4000ECE7002FE5D048424141012049420843BA
:103C5000E4E7002D02D1002CCBD0DAE7022040426D
:103C6000DCE7C0464302F0B542004C005E0AC30FD9
:103C70004802120E450A240EC90FFF2A0FD0FF2C4E
:103C80001AD0002A10D177427741002C29D0002F7A
:103C900017D0484241410120494208430BE002202D
:103CA000002E08D1FF2C07D0002C0AD1002D08D1FE
:103CB000584201231843F0BD0220002DFBD1002AF9
:103CC000E1D08B42F4D1A242F2DC04DBAE42EFD869
:103CD0000020AE42EFD25842434101205B421843DC
:103CE000E9E7002DD3D10020002FE4D1E0E7C04662
:103CF0000E4B70B500251E1C0D4CE41AA410A542F5
:103D000004D0AB00F35898470135F8E701F0DAF931
:103D1000084B00251E1C084CE41AA410A54204D030
:103D2000AB00F35898470135F8E770BDD05000005C
:103D3000D0500000D0500000D4500000002310B537
:103D4000934203D0CC5CC4540133F9E710BD031C8B
:103D50008218934202D019700133FAE770470000CD
:103D60000FB40B4B13B51C68002C05D0A369002BB6
:103D700002D1201C00F096F905AB201CA168049A22
:103D8000019300F0F1FA16BC08BC04B01847C04615
:103D90007001002008B54A424A4180235200DB00EE
:103DA00000F002F808BD0000F7B51E1C3C4B041CD7
:103DB0001D680F1C0192002D05D0AB69002B02D1AC
:103DC000281C00F06FF9374B9C4201D16C6808E069
:103DD000354B9C4201D1AC6803E0344B9C4200D18E
:103DE000EC68019B022B58D8002E56DB281C211CA6
:103DF00000F0EAF800236360A361A3891B0603D5E2
:103E0000281C216900F0EAF98322A3899343A38146
:103E1000019B022B13D0002F25D1002E01D180262B
:103E2000F600301C00F0D0F9071E18D18020C00029
:103E300000F0CAF9071E10D10120404200E0002026
:103E40000222A3891343A3810023A360231C4733C9
:103E5000236023610123636121E08026F600802234
:103E6000A3891343A381019B012B05D1A389019A47
:103E70001A437342A281A3610D4B0020AB62A28959
:103E8000276027616661130709D503231A4053424F
:103E900053415B421E40A66001E001204042FEBD4E
:103EA00070010020305000005050000070500000A1
:103EB00021400000F7B58A89051C0C1C13075ED44D
:103EC0004B68002B02DC0B6C002B1ADDE76A002F1D
:103ED00017D000232E682B6080235B011A4001D08D
:103EE000626D15E0281C216A0123B847021C431C9F
:103EF0000ED12B68002B0BD01D2B01D0162B02D11D
:103F00002E6000205EE04021A3890B43A38159E08D
:103F1000A3895B0706D56368D21A636B002B01D0B7
:103F2000236CD21A0023281C216AE76AB847A389A8
:103F3000421C06D12A68002A03D01D2A01D0162A65
:103F400019D10022626022692260DB0405D5431C7E
:103F500002D12B68002B00D16065616B2E600029B7
:103F6000CFD0231C4433994202D0281C00F036F9EC
:103F70000020606326E040221343A38122E00F6902
:103F8000002FBED00B680F60DB1B0193002392074C
:103F900000D14B69A360019B002BB2DD281C216A74
:103FA0003A1C019BA66AB047002806DC402201208B
:103FB000A38940421343A38104E0019B3F181B1ACD
:103FC0000193E8E7FEBD000038B50B69051C0C1C29
:103FD000002B01D100201CE0002804D08369002BB5
:103FE00001D100F05FF80B4B9C4201D16C6808E0F6
:103FF000094B9C4201D1AC6803E0084B9C4200D1C4
:10400000EC680C22A35E002BE4D0281C211CFFF7D7
:1040100051FF38BD3050000050500000705000007B
:1040200008B5024900F0AEF808BDC046C93F00001F
:10403000002310B5041C03604360836081814366E4
:10404000C281036143618361191C08225C30FFF760
:104050007EFE054B24626362044BA362044BE36261
:10406000044B236310BDC046B9480000E14800007E
:10407000194900004549000070B568254B1E5D4395
:104080000E1C291C743100F0EFF8041E08D000212A
:104090002A1C016046600C30A0606832FFF757FEB2
:1040A000201C70BD836913B5002B28D18364C364C1
:1040B0000365134B134A1B6882620193984201D136
:1040C00001238361041C00F01FF86060201C00F0D5
:1040D0001BF8A060201C00F017F80421E06000220B
:1040E0006068FFF7A5FFA06809210122FFF7A0FF84
:1040F000E06812210222FFF79BFF0123A36113BD99
:104100002C50000021400000F8B51D4B061C1D6816
:10411000AB69002B02D1281CFFF7C4FF4835AC68FF
:104120006B68013B05D40C22A75E002F10D06834C9
:10413000F7E72B68002B06D1301C0421FFF79CFF0A
:104140002860002801D02D68E9E70C23336016E0D1
:104150000123201C5B42E3810233A3816766276051
:10416000A760676027616761A7615C30391C08221E
:10417000FFF7EDFD201C6763A763A764E764F8BD44
:104180002C500000F7B5041C071C00260191483490
:10419000002C16D06368A5680093009B013B009338
:1041A0000DD4AB89012B08D90E22AB5E013304D0AC
:1041B000381C291C019B984706436835EDE72468A5
:1041C000E6E7301CFEBD000008B5034B011C186873
:1041D00000F04AF808BDC0467001002030B5002943
:1041E0003ED004390B68002B00DAC9181D4A136849
:1041F000141C002B02D14B60116031E099420DD2AA
:1042000008680A189A4203D11368C3180B605368F0
:104210004B60216024E08A4203D8131C5A68002AAC
:10422000F9D11D685C198C420BD1096869185818BE
:104230001960904214D110685268091819605A60C8
:104240000EE08C4202D90C23036009E008680C18C8
:10425000944203D114685268001908604A6059609A
:1042600030BDC046AC020020032370B5CC1C9C437B
:104270000834051C0C2C01D20C2405E0002C03DAB8
:104280000C2300202B6042E08C42F9D3204A1368B3
:10429000101C191C002913D00A68121B0DD40B2AFC
:1042A00002D90A608B181FE08B4202D15A68026063
:1042B0001BE04A685A600B1C17E00B1C4968E9E7D1
:1042C000144E3368002B03D1281C00F0E3FA306051
:1042D000281C211C00F0DEFA031C421CD0D0032253
:1042E000C61C964386420AD11C60181C07210B305D
:1042F0001A1D8843821A0AD05142995007E0311A98
:10430000281C00F0C7FA431CBAD0331CECE770BD80
:10431000AC020020A8020020936810B5013B936016
:10432000002B05DA9469A34208DBCBB20A2B05D037
:104330001368581C10601970C8B201E000F008FB47
:1043400010BDF8B5061C0F1C141CD518AC4208D0C3
:104350002178301C3A1CFFF7DFFF0134431CF5D1F4
:1043600000E00020F8BD0000F0B59FB0061C0F1C57
:1043700002920593002804D08369002B01D1FFF736
:1043800091FE794B9F4201D1776808E0774B9F42BD
:1043900001D1B76803E0764B9F4200D1F768BB8933
:1043A0001B070AD53B69002B07D0002306AD6B61C4
:1043B00020336B761033AB763DE0301C391C00F0B7
:1043C00033FB0028F1D001204042CAE0059A111DBC
:1043D00012680591002A7EDB0992013423782E2B86
:1043E00000D189E021786348032200F00FFC002807
:1043F00008D0604B0134C01A40238340181C2B683E
:10440000184328602178631C5B48062202932976B2
:1044100000F0FCFB002800D191E0584B002B00D0AD
:1044200084E00722059B07339343083305936B69A8
:10443000039A9B186B61029C2378002B04D1029B8A
:10444000E31A049311D003E0252BF8D00134F3E7ED
:10445000049B301C391C029AFFF773FF431C7BD06E
:104460006A69049B944663446B612378002B73D084
:104470000122002352426A6002A9543252180134C8
:104480002B60EB60AB601370AB6521783C48052274
:1044900000F0BCFB002809D0394B0134C01A0123BD
:1044A0008340181C2B6818432860EEE72B68DA0657
:1044B00004D55322202102A8121811701A0704D51E
:1044C00053222B2102A81218117022782A2A00D117
:1044D0007CE7099B05E05242EA60022213432B600D
:1044E0007BE72278303A092A04D80A214B43013469
:1044F0009B18F6E7099371E763782A2B09D1059B8E
:1045000002341A1D1B680592002B0DDA01235B4251
:104510000AE0002301342278303A092A04D80A211B
:104520004B4301349B18F6E707935BE705AB009319
:10453000301C291C3A1C134B00E000BF07E005AB00
:104540000093301C291C3A1C0E4B00F08BF8039092
:10455000039B013300D06AE7BB895B0600D532E7D5
:104560000B981FB0F0BDC046305000005050000006
:1045700070500000965000009A50000000000000AB
:104580009050000043430000F7B5171C01930A69DF
:104590008B6800900C1C934200DA131C221C3B60B9
:1045A00043321278002A01D001333B6023689B0616
:1045B00002D53B6802333B60062523681D401ED0B0
:1045C000231C43331B785A1E9341226892061CD544
:1045D0003020E1184031C870211C5A1C453109783F
:1045E000A21840320233D1700FE0221C0123009840
:1045F00001991932089EB047431C0ED00135E3687B
:104600003A689B1A9D42F0DBDAE7221C0098019978
:104610004332089DA847431C02D10120404220E0BC
:1046200006232068E1683A6803400025042B03D183
:104630008D1AEB43DB171D40A3682269934201DD0D
:104640009B1AED180027AF420ADA221C01230098BA
:1046500001991A32089EB047431CDED00137F2E7B9
:104660000020FEBDF0B58BB006920A1C43320793C2
:10467000059004920A7E0C1C109B6E2A00D1A8E0C3
:1046800011D8632A22D009D8002A00D1B2E0582AD2
:1046900000D0C2E045310A707C4A4FE0642A1DD048
:1046A000692A1BD0B9E0732A00D1A7E009D86F2A84
:1046B00029D0702A00D0B0E0202209680A43226085
:1046C00037E0752A1FD0782A33D0A6E00E1C1A686E
:1046D0004236111D196013683370A1E021681A6811
:1046E000080606D4490604D5111D19600023D55EBD
:1046F00002E0111D19601568002D3BDA2D23049A84
:104700006D42137036E021681A68080606D449061F
:1047100004D51568111D1960ADB202E0111D1960B4
:1047200015685A4B227E03930A276F2A1DD108274A
:104730001BE0221C782145321170554A19680392FA
:10474000081D226818600D68100602D4500600D5B6
:10475000ADB2D30702D520231A4322601027002DC3
:1047600003D1202322689A432260231C0022433372
:104770001A7002E00A27454B03936368A360002B7D
:1047800003DB0422216891432160002D02D1049EA5
:10479000002B0ED0049E281C391CFDF705FC039B42
:1047A000013E5B5C281C3370391CFDF777FB051E4E
:1047B000F1D1082F09D12368DB0706D56368226988
:1047C000934202DC3023013E3370049B9B1B236128
:1047D0002BE009681A68080607D4490605D5111D9B
:1047E00019601368A28A1A8004E0111D1960136809
:1047F00062691A600023049E236116E01A68111D85
:10480000196016680021301C626800F0FFF900286A
:1048100001D0801B6060636803E0261C4236327062
:10482000012323610023049A1370079B05980093CA
:10483000211C069B09AAFFF7A7FE431C02D10120F9
:10484000404221E0236905980699321C079DA8473C
:10485000431CF4D023689B0705D4099BE068984269
:1048600012DA181C10E00025E368099A9B1A9D4291
:10487000F3DA221C0123059806991932079EB047E6
:10488000431CDCD00135EFE70BB0F0BDA1500000B8
:10489000B250000038B50023064C051C081C2360EC
:1048A000FDF7C8F8431C03D12368002B00D02B6010
:1048B00038BDC046F802002038B50C1C0E25495FF3
:1048C00000F0B0F9002803DB636D1B18636503E09B
:1048D000A289024B1340A38138BDC046FFEFFFFF02
:1048E000F8B51E1C8B89051C0C1C171CDB0505D597
:1048F0000E23C95E0022022300F01CF9A289054B99
:10490000281C1340A3813A1C0E23E15E331C00F0E7
:1049100077F8F8BDFFEFFFFF38B50C1C0E25495F97
:1049200000F008F9A389421C03D1054A1340A38172
:1049300004E0802252011343A381606538BDC04664
:10494000FFEFFFFF08B50E23C95E00F0E1F808BDD8
:1049500070B5051C0E1C141C002804D08369002BA4
:1049600001D1FFF79FFB234B9C4201D16C6808E00B
:10497000214B9C4201D1AC6803E0204B9C4200D10A
:10498000EC68A369A360A3891B070AD52369002BE0
:1049900007D023682269F6B2981A636998420FDB40
:1049A00008E0281C211C00F03FF80028F1D001206D
:1049B00040421DE0281C211CFFF706FB0028F6D111
:1049C000A3680130013BA36023685A1C22601E705B
:1049D0006369984205D0A389301CDB0708D50A2EED
:1049E00006D1281C211CFFF7EFFA0028DFD1301C6C
:1049F00070BDC046305000005050000070500000A4
:104A000038B5051C0020074C2060081C111C1A1C1E
:104A1000FBF7ECFD431C03D12368002B00D02B6077
:104A200038BDC046F8020020354B70B51D68061C25
:104A30000C1C002D05D0AB69002B02D1281CFFF700
:104A400031FB304B9C4201D16C6808E02E4B9C42FC
:104A500001D1AC6803E02D4B9C4200D1EC68A389E6
:104A60009AB2110723D4D10607D40922012032605B
:104A700037321343A381404240E0530713D5616BA3
:104A8000002908D0231C4433994202D0301CFFF780
:104A9000A5FB002363632422A3899343A3810023FE
:104AA0006360236923600822A3891343A3812369D8
:104AB000002B0BD1A023A2899B00134080229200DF
:104AC000934203D0301C211C00F048F80123A28936
:104AD000134005D00023A36063695B42A36103E038
:104AE000910700D46369A36000202369834205D144
:104AF000130603D540231A43A281013870BDC04676
:104B00007001002030500000505000007050000034
:104B100038B50023064C051C081C2360FCF79CFFDD
:104B2000431C03D12368002B00D02B6038BDC04646
:104B3000F802002038B5051C0020074C2060081C36
:104B4000111C1A1CFCF794FF431C03D12368002B93
:104B500000D02B6038BDC046F8020020F0B58B892C
:104B600091B09B0706D50B1C47330B600B610123EB
:104B70004B6145E00C1C0E23C95E061C002904DABB
:104B80008023A5891D4010D10CE001AA00F05EF839
:104B90000028F5DBF023029D1B021D40194BED1888
:104BA0006B425D418027FF0001E000254027301C5B
:104BB000391CFFF759FB00280CD1A3899A051FD493
:104BC00002221343A381231C473323602361012363
:104BD000636115E080220C4BB362A389206013430C
:104BE000A38120616761002D0AD00E23E15E301C95
:104BF00000F03EF8002803D00122A3891343A381CB
:104C000011B0F0BD00E0FFFF21400000C9B28218E2
:104C1000904204D003788B4202D00130F8E70020A4
:104C20007047000038B5051C0020074C2060081CA8
:104C3000111C1A1CFBF7B8FC431C03D12368002B82
:104C400000D02B6038BDC046F802002038B50023E4
:104C5000064C051C081C111C2360FCF701FF431CBB
:104C600003D12368002B00D02B6038BDF802002050
:104C700038B50023064C051C081C2360FCF7F6FE23
:104C8000431C03D12368002B00D02B6038BDC046E5
:104C9000F802002000080042000C00420010004210
:104CA0000014004200180042001C0042090A0B0CCC
:104CB0000D0E0000010000000200000004000000D2
:104CC000080000000010000000200000004000006C
:104CD000008000000000010000000200000004004D
:104CE00000000800921000008E1000008E100000DE
:104CF000EE100000EE100000A81000009810000058
:104D0000AE100000DC1000005C1300003C1300003B
:104D10003C130000C81300004E1300006A1300008B
:104D20004013000078130000B8130000EA1C0000D4
:104D3000F21C0000C21C0000CA1C0000D21C0000B3
:104D4000DA1C0000E21C00004672657175656E6336
:104D5000793A20257520202D2D2D2D20447574792C
:104D6000206379636C653A2025750A00486578618F
:104D70003A20253034780A42696E3A20000000005B
:104D8000310000003000000020496E7465727275B9
:104D900070732073746174653A2025730A000000F3
:104DA0004D697373696F6E496D703A643D31362C8D
:104DB0006F3D362C623D39353A3332642C333264E0
:104DC000232C3332642C333264232C3332642C335F
:104DD0003264232C3332642C333264232C33326418
:104DE0002C3332642C333264232C3332652C33322F
:104DF000662C333266232C3332672C672C38702CA8
:104E0000672C38702C61232C702C63372C702C6726
:104E10002C38702C672C38702C662C702C66232C48
:104E2000702C672C38702C672C38702C61232C70F8
:104E30002C63372C702C672C38702C672C38702C16
:104E4000662C702C66232C702C61232C672C32640A
:104E50002C3332702C61232C672C3263232C333299
:104E6000702C61232C672C32632C6123352C386322
:104E70002C32702C3332702C6123352C67352C3258
:104E800066232C3332702C6123352C67352C326627
:104E90002C3332702C6123352C67352C32652C6411
:104EA000232C386400000000142E0000022D0000A6
:104EB000E82D0000EE2C0000E82D0000F22D00008F
:104EC000E82D0000EE2C0000022D0000022D000055
:104ED000F22D0000EE2C0000F82C0000F82C000051
:104EE000F82C00005A3000007434000052340000E6
:104EF00052340000463400003A3300003A330000D8
:104F00003A340000463400003A3300003A340000DE
:104F10003A330000463400003E3300003E330000C8
:104F20003E330000543600000020202020202020A6
:104F30002020282828282820202020202020202049
:104F40002020202020202020208810101010101059
:104F500010101010101010101004040404040404A5
:104F6000040404101010101010104141414141413F
:104F70000101010101010101010101010101010121
:104F80000101010110101010101042424242424231
:104F900002020202020202020202020202020202F1
:104FA0000202020210101010200000000000000099
:104FB00000000000000000000000000000000000F1
:104FC00000000000000000000000000000000000E1
:104FD00000000000000000000000000000000000D1
:104FE00000000000000000000000000000000000C1
:104FF00000000000000000000000000000000000B1
:1050000000000000000000000000000000000000A0
:105010000000000000000000000000000000000090
:10502000000000000000000000430000100100200C
:105030000000000000000000000000000000000070
:105040000000000000000000000000000000000060
:105050000000000000000000000000000000000050
:105060000000000000000000000000000000000040
:105070000000000000000000000000000000000030
:105080000000000000000000000000000000000020
:10509000232D302B2000686C4C0065666745464721
:1050A00000303132333435363738394142434445A4
:1050B0004600303132333435363738396162636413
:1050C00065660000F8B5C046F8BC08BC9E4670474F
:1050D000DD000000F8B5C046F8BC08BC9E4670472D
:0450E000B500000017
:1050E40008000000401F000001040600000000004A
:1050F400E90E00000D0E0000490D0000850C0000B3
:10510400D60B0000290B00008F0A0000F7090000ED
:1051140064090000E108000062080000E8070000DC
:10512400740700000D070000A506000048060000F3
:10513400EB0500009905000047050000FC04000091
:10514400B50400007004000031040000F403000002
:10515400BC03000087030000540300002403000084
:10516400F7020000CC020000A40200007E0200004E
:105174005A0200003802000018020000FA01000080
:10518400DE010000C3010000AA010000920100003A
:105194007B01000066010000520100003F01000095
:1051A4002D0100001C0100000C010000FD000000A6
:1051B400EF000000E2000000D5000000C90000007C
:1051C400BE000000B3000000A90000009F00000022
:1051D400970000008E000000860000007F000000A1
:1051E400030000003F000000A04D0000284F000015
:1051F40000000000305000005050000070500000CB
:10520400000000000000000000000000000000009A
:105214002950000000000000000000000000000011
:10522400000000000000000000000000000000007A
:10523400000000000000000000000000000000006A
:10524400000000000000000000000000000000005A
:045254001001002025
:040000030000193DA3
:00000001FF
