S01000004E656F706978656C2E73726563D0
S1130000E021002005190000011900000119000079
S113001000000000000000000000000000000000DC
S113002000000000000000000000000001190000B2
S11300300000000000000000011900000119000088
S11300400119000001190000011900000119000044
S11300500119000001190000011900000119000034
S1130060011900008D0E00009D0E0000AD0E000071
S1130070BD0E0000CD0E0000DD0E0000350F0000A7
S1130080450F0000550F0000011900000119000080
S11300900119000000000000000000000119000028
S11300A00119000000000000011900000000000018
S11300B00000000010B5064C2378002B07D1054B37
S11300C0002B02D0044800E000BF0123237010BDC0
S11300D07000002000000000042F000008B5084B49
S11300E0002B03D00748084900E000BF0748036815
S11300F0002B00D108BD064B002BFBD09847F9E735
S113010000000000042F000074000020042F0000F1
S11301100000000010B50020084B9847084CFA2155
S11301208900A047074B1860FA218900A047064BB5
S113013018600522054B1A6010BDC04691160000D8
S1130140E91B0000040000200000002010E000E093
S113015030B5084B1C68084A00258021490206E096
S1130160002C04D05460956013680B42FCD0013815
S1130170F6D230BD0400002010E000E010B54908BC
S1130180402481420CD30023091A01339BB28842D4
S1130190FAD9013B9BB24024FF2B01D813800024E1
S11301A0201C10BDF0B55F4656464D464446F0B49B
S11301B089B01C1C12AB1B78061C5E4340258E4282
S11301C000D9C7E0251C07920C1C021C002D51D13C
S11301D0181C00210023634DA8478346261C0027D2
S11301E00023002402930394002200233F202021B3
S11301F08C461F390096019720246442041903D4C5
S11302000D1CA540A84604E06446241A0D1CE540D4
S1130210A8460C1C8440A146141C1D1CA4185D4156
S1130220221C2B1C5E4647463E4203D00E1C26432E
S1130230321C2B1C019C9C4210D802D1009C94427D
S11302400CD8009C019D121BAB414D46029E039F9E
S113025035433C1C46463443029503940138CBD2C3
S11302600022012302980399121A8B41110C1B04DA
S113027019436CE00021012D69D1610F0F1CE100CD
S11302808846181C00210023364CA047041C0D1C72
S113029000239C4620339B46012663460593B946BA
S11302A06B461B7D069300239C46002000213F22C1
S11302B00094019520235B42D31803D4341C9C4042
S11302C0231C04E05B469B1A341CDC40231C371CB3
S11302D09740041C0D1C24184D41201C291C02901D
S11302E0039144463C40A2464C4623405446234393
S11302F005D0029B039C1D1C3543281C211C019B1B
S11303008B420AD802D1009B834206D8009B019CF1
S1130310C01AA14163463B439C46013ACAD2009CA1
S1130320019D62460599531ADB080F4A934208D986
S1130330069A0132D2B206920A1C01320592082AA8
S1130340AED14025069A082A04D051031943079BCD
S113035019800025281C09B03CBC90469946A24649
S1130360AB46F0BD0D1D0000FF1F000010B582B0AC
S1130370041C0E4B1B78002B01D000290DD001A9C1
S11303800C7013200A4B984713200A4B9847074BCD
S11303905C7001221A70002006E0044B5B788342F3
S11303A001D01D2000E0002002B010BD8C00002010
S11303B0A91700001D170000444B984233D006D8FB
S11303C0434B98420DD0434B98421BD06FE0424BB5
S11303D098424AD0414B984258D0414B984266D1FA
S11303E032E0012906D0002963D0022906D003296E
S11303F006D001E03B4867E0002065E03A4863E04E
S11304003A4861E0012906D0002954D0022906D0D7
S1130410032906D001E0364856E0002054E0354870
S113042052E0354850E0012906D0002945D0022980
S113043006D0032906D001E0304845E0002043E01F
S11304402F4841E02F483FE0012906D0002936D04B
S1130450022906D0032906D001E02B4834E000200D
S113046032E02A4830E02A482EE0012906D000294B
S113047027D0022906D0032906D001E0254823E02D
S1130480002021E024481FE024481DE0012906D073
S1130490002918D0022906D0032906D001E02048FB
S11304A012E0002010E01F480EE01F480CE000207E
S11304B00AE01E4808E0032006E01D4804E01D4849
S11304C002E01D4800E01D487047C046001000428D
S11304D000080042000C004200180042001C0042C8
S11304E00014004203000500030006000300070097
S11304F00300010003001E0003001F0002000D00A2
S113050002000E0002000F0003001100030012009D
S11305100300130005003F0005003E0005005200E3
S1130520030017000300180003001900030004006F
S113053002000C0003001000050053000300160025
S113054030B587B00C4B6A4632CB32C232CB32C2A2
S1130550009B834206D001239A0069465258824286
S113056003D100E00023D8B203E00133062BF3D11A
S1130570002007B030BDC046042D0000F0B547464A
S113058080B40C1C9046002810D1002A0ADD8F1874
S1130590094E0A4D3068211C2B6898470134BC422F
S11305A0F8D101E000239846404601E00120404292
S11305B004BC9046F0BDC046B0010020A801002054
S11305C0F0B5474680B40138022815D8002A10D067
S11305D0151C0E1C00240C4B98460C4F43461868FF
S11305E0315D3B689847002809DB0134A542F5D109
S11305F000E00024201C04E00120404201E001202E
S1130600404204BC9046F0BDB0010020AC01002083
S113061070B582B0051C0E1C00226B46DA80064CB5
S1130620281C6B46991DA0470028F9D16B46063358
S11306301B88337002B070BD690B000070B5051CD7
S11306408CB2034E281C211CB0470028FAD170BD7F
S11306503D0B000010B582B06B46DC1D1048211C18
S11306600122104B984772B6BFF35F8F00220E4BE6
S11306701A700E4B1B7821780D4AD1549B2B03D151
S113068000220A4B1A7002E00133084A1370012257
S1130690054B1A70BFF35F8F62B602B010BDC0463F
S11306A02C010020E10B0000080000206001002064
S11306B090000020F0B591B08023DB050093002367
S11306C00193FF2269460A8100228B72CB720124B6
S11306D024216846445401314454013143540131C6
S11306E043540A930531435401314354059303821F
S11306F0C376027602774276132383764277802389
S11307005B0303932F4B0C932F4B0D9301235B42FD
S11307100E930F93E1235B0208932C4D2C4B1D6029
S11307202C4A2D4B1A602D4A2D4B1A60281C2D493A
S11307306A462D4B98472D4F3B68986800212C4EF4
S1130740B0473B6858680021B0472E68301C294BDD
S113075098471F2318408440274B1C602A68D3699C
S1130760002BFCD13268023313433360174B1B68F0
S1130770DA69002AFCD15A68802149020A435A6086
S11307800121124AD171DA69002AFCD1DA69002AFE
S1130790FCD15A68802189020A435A6001210B4A1C
S11307A09171DA69002AFCD100201449144B98474E
S11307B004220C4B9A75FD32FF320F4B1A6011B0B4
S11307C0F0BDC04603000400030005002C01002016
S11307D0B00100203D060000AC010020110600001D
S11307E0A801002000080042050800006C00002059
S11307F0051E0000610E000000E100E05506000047
S1130800250E0000F0B55F4656464D464446F0B40A
S113081091B0051C0C1C161C2960081CB94B984788
S113082022680523D20700D563E1226817339207B3
S113083000D55EE1B4490A6A871C1B3BBB401343E5
S11308400B620FA92D27F35D0B701430C3B2029312
S1130850181CAE4B98470298AD4B9847F05D0021A9
S1130860AC4B9847F37A6B712423F35CAB7125236B
S1130870F35CEB71F37E2B72337F6B722B689A46B9
S1130880181CA04B9847143000220E2306A98C464E
S113089063441A80338A99468023DB01994519D031
S11308A004D880239B0199450AD003E1C023DB01CE
S11308B099450AD080231B02994500D1FFE0F9E055
S11308C0102398460F3B0793FDE008239846073B07
S11308D00793F8E033689B46F368029373690393C4
S11308E0337E04932623F35C059372680692002AF0
S11308F015D080235B059A4236D12723F35C002B65
S113090036D1336A9846C0B2834B9847011C40469F
S11309100E2206AB9C466244804B984725E0082390
S11309209846002307932723F35C002B0BD0434600
S11309300093306AB16A0E2206AB9C466244079B60
S1130940774FB84711E0336A1F1CC0B2724B984707
S1130950011C43460093381C0E2206AB9C4662449D
S1130960079B6F4FB84700E00020031E00D0C0E093
S1130970737E002B02D0B37E524693732A68069F7F
S1130980D369002BFCD10E3306AA944663441B881A
S113099052469381029B5A461343039A13433B43A3
S11309A04A461343049A12021343059A57071F43F6
S11309B02723F35C002B01D104331F43337F5902F7
S11309C0727E93020B43727F120213432422B25CA1
S11309D0520413432522B25C12041343F17A1943DF
S11309E03389FF2B04D0802252041743194305E0B6
S11309F0F37E002B02D08023DB041F432C23F35C03
S1130A00002B03D1474B9B789B0701D580231F43C1
S1130A102A68D369002BFCD1534659602A68D369EC
S1130A20002BFCD153461F600EAB80221A700022AB
S1130A305A70DA709A70336B0A93736B0B93B36BBF
S1130A400C93F36B02930D9300270EAEF9B2BB0027
S1130A500AAA9858002802D1201C334B9847431CFB
S1130A6005D03070000CC0B2311C304B98470137B0
S1130A70042FEBD10023EB602B616B61AB61EB6165
S1130A802B62AB626B620022EB85AB853033EA5498
S1130A900133EA540133EA540133EA542868194B08
S1130AA09847041C2249234B9847A400224BE55045
S1130AB000231EE0102398460023079303E003233A
S1130AC098460023079333689B46F368029373693F
S1130AD00393337E04932623F35C05937268069292
S1130AE0002A00D11FE780235B059A4200D104E766
S1130AF03EE7181C11B03CBC90469946A246AB4652
S1130B00F0BDC0464105000000040040A9170000E4
S1130B101D1700006D030000C51700007D010000D3
S1130B20A501000000200041B9030000A118000045
S1130B30810C0000250E0000B401002010B50368EC
S1130B40C4791C22002C0DD0C08D80B2173A002825
S1130B5008D1DA69002AFCD1198502211A7E0A42D9
S1130B60FCD00022101C10BD10B5046882791C232F
S1130B70002A33D0828D92B2173B002A2ED1227ED6
S1130B8052072BD5E369002BFCD1638BDBB29A06A9
S1130B9021D09A0703D50223638318331EE05A0732
S1130BA003D5042363831A3318E0DA0703D501233A
S1130BB06383123312E0DA0605D5628B10231343E4
S1130BC0638342230AE09B0605D5628B20231343EB
S1130BD06383412302E0238D0B800023181C10BD86
S1130BE0F0B557464E46C0B483B01723002A3CD014
S1130BF084790533002C38D08A4681460568171C51
S1130C00002604242CE02A7E224204D1012B23D086
S1130C10013B002BF7D16B46991D00230B804846FE
S1130C20154B9847002819D1731C99B26B460633AB
S1130C301B88524693554A465279012A05D1B21C63
S1130C4096B21B0A5246535400E00E1C7A1E97B209
S1130C50002F05D1002308E0122306E0031C04E062
S1130C602B7E2342D7D1054BCDE7181C03B00CBC17
S1130C7091469A46F0BDC046690B0000FFFF000094
S1130C80F8B58000654BC5582C68E369002BFCD18E
S1130C90237EA67D1E403123EB5C3022AF5C1F40D7
S1130CA0F30722D5EB8D9BB2002B1CD0AA6A1378D4
S1130CB0DBB2511CA9626979012901D09BB204E01D
S1130CC0517809020B430232AA62DB05DB0D23854E
S1130CD0EB8D013B9BB2EB85002B06D101332375D1
S1130CE00133A37501E001232375B30709D502235A
S1130CF0237500223133EA54FB0702D5281CEB6824
S1130D00984773076AD5AB8D9BB2002B64D0638B75
S1130D10DBB21A0702D43F22134001E0372213400A
S1130D20002B37D09A0707D51A223223EA54628B54
S1130D30303B1343638327E05A0707D51E2232232F
S1130D40EA54628B2E3B134363831DE0DA0707D515
S1130D5013223223EA54628B313B1343638313E03F
S1130D60DA0607D542223223EA54628B223B13432C
S1130D70638309E020221A4206D021323223EA5446
S1130D80628B123B134363837B0727D5281C6B6953
S1130D90984723E0238DDB05DB0DDAB2696A0A701C
S1130DA06A6A511C69626979012904D11B0A53706A
S1130DB06B6A01336B62AB8D013B9BB2AB85002B3D
S1130DC00CD10433237500222E33EA54BB0705D516
S1130DD0281C2B69984701E004232375F30607D5E3
S1130DE0102323752376FB0602D5281CEB6998474C
S1130DF0B30607D52023237523763B0702D5281C89
S1130E00AB699847330707D5082323752376BB06B8
S1130E1002D52B6A281C9847F8BDC046B4010020AF
S1130E207047C046F0B50A4B1B78002B0CD1094F14
S1130E30094E0A4D0024DE515A1914600433182B4C
S1130E40F9D10122024B1A708000024BC150F0BD4F
S1130E506101002064010020210E0000B401002083
S1130E6010B582B0041C684605490622054B984714
S1130E70201C054B98476B46185602B010BDC0465F
S1130E801C2D0000AD1D00004105000008B5024BFB
S1130E901B680020984708BD6401002008B5024B78
S1130EA05B680120984708BD6401002008B5024B27
S1130EB09B680220984708BD6401002008B5024BD6
S1130EC0DB680320984708BD6401002008B5024B85
S1130ED01B690420984708BD6401002008B5024B33
S1130EE05B690520984708BD64010020F0B54746BA
S1130EF080B480000D4BC7583B68DE6A7B6B1E4094
S1130F00BB6B1E4000240A4B98464346E5582E42CC
S1130F1005D03B195B68381C98473B68DD62043494
S1130F20302CF2D104BC9046F0BDC046CC01002068
S1130F30242D000008B50020014B984708BDC04689
S1130F40ED0E000008B50120014B984708BDC046CE
S1130F50ED0E000008B50220014B984708BDC046BD
S1130F60ED0E00000C4B1B68002B10D1EFF3108327
S1130F70002B09D172B6BFF35F8F0022074B1A70A2
S1130F800132074B1A7002E00022054B1A70024A24
S1130F9013680133136070477C01002008000020AF
S1130FA080010020084B1A68013A1A601B68002B64
S1130FB009D1064B1B78002B05D00122044B1A7073
S1130FC0BFF35F8F62B670477C0100208001002070
S1130FD008000020F0B5474680B482B001AC012679
S1130FE066700027A77026701320211C0B4DA8479C
S1130FF00B4B984680231B03424693610D20211C12
S1131000A84780239B0142465361277066701C20C9
S1131010211CA84702B004BC9046F0BD2510000076
S11310200044004100B583B001AB80221A700A78F5
S11310305A704A789A708A78DA70191C014B98476A
S113104003B000BDA118000008B5082803D880002B
S11310501B4B1B589F46002031E01A4B18692EE0A9
S1131060194B186A8005800F184BC340181C26E0E2
S1131070144B586923E0134B1B68022018401ED000
S113108011491022CB681A42FCD00E4B1B685B0737
S113109014D500200E4B98470A4B9B681B041B0C6D
S11310A058430CE05023084AD35C00205B0706D564
S11310B0044BD86803E08020000200E0054808BD26
S11310C0542D0000840100200008004000127A0022
S11310D0C5170000006CDC0270B50C4C236A017863
S11310E0857842780120024092014026B34313439D
S11310F0021C2A40D2017F308343134303220A4057
S1131100120203490B401343236270BD00080040E0
S1131110FFFCFFFFF0B557464E464546E0B41C4E73
S1131120B3699C46417805780779C3789946447930
S11311308378012003409B009A460422904662462D
S113114043469A43131C52461A43131C0140C900D8
S1131150082293430B434A460240920140218B43A9
S113116013430740FF01802293433B43793A1540E0
S11311702D02084F3B402B4304402003064C1C40E7
S11311800443B4611CBC90469946A246F0BDC046D7
S113119000080040FFF8FFFFFFEFFFFFF0B55F46D8
S11311A056464D464446F0B483B02E4EB38A9C4610
S11311B0457803785A425A41914683789B46C378CE
S11311C002799046477B027B0192847B82682648A1
S11311D0426101204A4692009146042292466246A8
S11311E051468A4394464A4661460A4394464246D7
S11311F00240D200904608229146624649468A43FC
S11312009446424661460A43944603401B01102219
S11312109046624641468A43134359460140490178
S1131220202293430B43019A0240920140218B43B5
S113123013430740FF01802293433B43793A15400F
S11312402D020A4F3B402B4304402003084C1C4012
S11312500443B48203B03CBC90469946A246AB46D4
S1131260F0BDC0460008004084010020FFF8FFFFE5
S1131270FFEFFFFF10B5037A9B061A0C43899B0509
S11312809B0D1343194C6360818843881943C379C8
S1131290827913430B434278D201134323600378CA
S11312A0042B0FD1037B9B06028A1343191CC389A9
S11312B01B040F4A13400B43A360216804230B4310
S11312C0236011E0202B0FD1037B9B06028A13437A
S11312D0191CC3891B04064A13400B43034A936039
S11312E0136804490B43136010BDC04684010020F9
S11312F00000FF0324040000082803D88000254BC5
S11313001B589F46172044E0234A116A02230B43CB
S1131310136200203DE0204A916902230B4393614C
S1131320002036E01C4A118A02230B43138200205A
S11313302FE0194A918A02230B439382002028E06C
S113134016490B68022213430B60134B9A84191C31
S11313500E32CB681A42FCD0104A91680E4BD96207
S113136052689A6200229A84191C1032CB681A427D
S1131370FCD00A4B1B689BB2074A9384002008E008
S113138005494422885C022303438B54002000E077
S113139000207047782D00000008004084010020E0
S11313A0F0B54F464646C0B491B0C222D200614B5C
S11313B09A6061494B681E2293431A3A13434B6067
S11313C001AB1A7000245D4DE0B201A9A8470134B5
S11313D0252CF9D10CA8002303708022120282600C
S11313E0C3700122027103738373062141708270FA
S11313F04373534B98470520524B98474D4902225B
S1131400CB681A42FCD04B498A8A802313438B82CF
S11314104D4D2B68DB045B0E1A0488694B4B03406B
S113142013438B610AA80123437083700024C470A2
S11314300371063303704471454B98470420414BB4
S1131440984705AB00225C809C809A71DA713F2139
S113145059813B3919705A702B689B0E3F2B00D170
S1131460203B05A80372B723DB0003820723037321
S11314703833C381374B984704A8002545700126AB
S113148086700570344B984706202E4B9946984732
S1131490324B984701AC666065702572657205230E
S11314A023700120211C2E4B9846984701202D4F74
S11314B0B847657025726572042323701C3363601A
S11314C00220211CC0470220B847666065700623CD
S11314D02370257265720320211CC0470320B8477E
S11314E026700020211C154B984700201E4B98475E
S11314F00720C8470F49D022CB681340D02BFBD11B
S11315001A4A0023137253729372D37201A94B7057
S11315100B724B7207330B70043B4B600020104B73
S1131520984700200F4B984711B00CBC9046994641
S1131530F0BDC0460008004000400041A91700006B
S11315409D110000F912000024608000FFFF80FF5D
S11315501511000075120000D9100000711500006B
S1131560951500004D1600001D17000000040040F2
S1131570064A916908230B4393610122044B1A70B4
S1131580191C0B781342FCD17047C046000400407C
S1131590000C004070B5061C041C0D782D02054398
S11315A04B78002B02D08023DB021D434B7A002BA7
S11315B002D080231B031D434868012818D9431E09
S11315C0184210D1022806D90223002201325B00FE
S11315D09842FBD800E0002212023243141C8023FC
S11315E05B031D4304E00402344380239B021D4338
S11315F00B7A002B02D080239B031D430F4A5378A0
S11316005BB2002BFBDB0E4B98470E4B1E700B4A54
S113161053785BB2002BFBDB084B9C601A1C53789D
S11316205BB2002BFBDB054A516880235B020B4055
S11316301D435560044B984770BDC046000C0040E4
S1131640650F0000080C0040A50F000010B5041C35
S11316500B4A53785BB2002BFBDB0A4B98470A4BCF
S11316601C70074A53785BB2002BFBDB044A5368B7
S1131670802149020B435360044B984710BDC04678
S1131680000C0040650F0000040C0040A50F000092
S113169070B5041C1A4A53785BB2002BFBDB194B60
S11316A09847194B1C70164A53785BB2002BFBDB2E
S11316B0134E7068C004C00E144B9847051C124B9F
S11316C01C707668F602F60F114B1C700C4A5378A6
S11316D05BB2002BFBDB0A4B9C68240AA4B20D4BC3
S11316E09847002E07D1012C07D9281C211C0A4B2E
S11316F09847051C01E00134E540281C70BDC04634
S1131700000C0040650F0000040C0040491000006C
S1131710080C0040A50F0000E91B000010B5041CD4
S1131720064B9847064B1C70064A51888023DB0100
S11317300B435380044B984710BDC046650F00000F
S1131740020C0040000C0040A50F000010B5041C62
S11317500F4B98470F4B1C700F4B5A881205100FF4
S113176059880E4A0A405A8059880D4A0A405A80BC
S1131770191C8022D2014B881342FCD10649020273
S11317804888064B034013434B80064B984710BDD3
S1131790650F0000020C0040000C0040FFF0FFFF4A
S11317A0FFBFFFFFA50F000010B50C78240204430F
S11317B0024B9847A4B2024B5C8010BD4D17000049
S11317C0000C004010B5041C064B9847064B1C70D7
S11317D0064B5C882405240F054B9847201C054BB9
S11317E0984710BD650F0000020C0040000C00403B
S11317F0A50F00009116000030B5D378002B1ED140
S11318001478802C04D0240680235B021C4300E05F
S1131810002453780225AB430AD19378002B03D1DB
S113182080239B021C4302E0C023DB021C43416073
S11318305378013B012B12D8184B1C400FE0416038
S11318400B041B0CA024E405234383620B0CD0245B
S1131850240623438362D378002B18D01CE00B04A6
S11318601B0CA025ED052B43234383620B0CD025D1
S11318702D062B4323438362D378002B0CD16303BF
S113188005D59378012B01D1816100E04161537842
S1131890013B012B00D8816030BDC046FFFFFBFF38
S11318A008B5031C0A1CC1090020002904D15809E9
S11318B0C00105498C4660441F210B401E399940E4
S11318C0024B984708BDC04600440041F917000088
S11318D07047C04608B5054B9847054B9847054BDC
S11318E09847054B9847054B984708BDA11300003E
S11318F0D50F0000D1180000D1180000D118000045
S1131900FEE7C04670B52E4B2E4A9A4203D02E4BAA
S11319102B4A9A4204D32D4B2D4A9A4210D31EE0EF
S11319202C4A294B03339B1A9B0801339B0000224A
S1131930234824498C58845004329A42FAD1EAE765
S1131940254A224B03339B1A9B0801339B00002238
S11319501F4800211418216004329A42FAD11F4A08
S1131960FF211F4B8B439360FD3990235B001D4A7D
S1131970D1501D48C3780324A34302221343C370E8
S1131980C3780C26B34308210B43C370174B987BD1
S11319903025A843051C202028439873987BB04326
S11319A001439973997BA1430A439A73104A51687E
S11319B080230B4353600F4B98470F4B9847FEE728
S11319C000000020042F000070000020DC01002033
S11319D070000020040000207400002000ED00E0EE
S11319E00000000000700041005000410048004128
S11319F000400041611D00001D1B0000031C064A3D
S1131A001268002A02D10549034A1160024A10688B
S1131A10C31813607047C0469C010020E0210020D9
S1131A20012040427047C04680239B014B60002048
S1131A307047C0460120704700207047F0B54F46FC
S1131A404646C0B485B080460F1C161C2F4B1A881E
S1131A506B46DA806B469C1D2D4B99464CE08023E7
S1131A601B0402932388033B9BB2238001AB1F70AA
S1131A706A464146D170033269468E7002311B7842
S1131A80127809781B04120213430B43039303993E
S1131A902048C84700226B465A711F48802189019B
S1131AA06B465A1D039D029B1D420ED08161C046A8
S1131AB0C046C046C046C046C046C046C046416156
S1131AC0C046C046C046C0460DE08161C046416183
S1131AD0C046C046C046C046C046C046C046C046D2
S1131AE0C046C046C046029B5B080293137801338C
S1131AF0DBB21370172BD5D923889BB2002BAED140
S1131B0005B00CBC90469946F0BDC0460A000020C2
S1131B10D11D0000F02D000000440041F0B599B043
S1131B20244B9847244B9847244B984772B6BFF3ED
S1131B305F8F0022224B1A70EFF31083002B01D029
S1131B40204900E020492148214B984703A8214916
S1131B505422214B9847039B1801C0B2049B019364
S1131B601901C9B2059A1201D2B21C4B9847C82078
S1131B701B4B984701241B4F184E194D3B6A03AB6E
S1131B80620011198900C8580001C0B25B185A6874
S1131B901101C9B29A681201D2B2B047C820A8474D
S1131BA001340622E10FD317A2424B415B421C4091
S1131BB0E4E7C046D5180000B50600001501000092
S1131BC0080000202C2E0000282E0000302E0000DB
S1131BD0D11D00009C2D0000AD1D00003D1A000029
S1131BE05101000000440041002243088B4274D399
S1131BF003098B425FD3030A8B4244D3030B8B420A
S1131C0028D3030C8B420DD3FF22090212BA030C12
S1131C108B4202D31212090265D0030B8B4219D3F3
S1131C2000E0090AC30B8B4201D3CB03C01A524113
S1131C30830B8B4201D38B03C01A5241430B8B425B
S1131C4001D34B03C01A5241030B8B4201D30B0344
S1131C50C01A5241C30A8B4201D3CB02C01A52416B
S1131C60830A8B4201D38B02C01A5241430A8B422E
S1131C7001D34B02C01A5241030A8B4201D30B0217
S1131C80C01A5241CDD2C3098B4201D3CB01C01A31
S1131C90524183098B4201D38B01C01A524143093B
S1131CA08B4201D34B01C01A524103098B4201D329
S1131CB00B01C01A5241C3088B4201D3CB00C01A96
S1131CC0524183088B4201D38B00C01A524143080E
S1131CD08B4201D34B00C01A5241411A00D2014633
S1131CE0524110467047FFE701B5002000F00CF8A0
S1131CF002BDC0460029F7D003B5FFF775FF0EBC3F
S1131D004243891A1847C0467047C046F0B54F464B
S1131D10464605042D0C2C1CC0B41704160C3F0CAD
S1131D209946030C7C4375435F4373437D19260C2A
S1131D30AD199C46AF4203D980235B029846C44444
S1131D404B465143434324042E0C240C2D04664477
S1131D502C1959188919201C0CBC90469946F0BDC1
S1131D600E4B70B500251E1C0D4CE41AA410A542A0
S1131D7004D0AB00F35898470135F8E701F0B2F806
S1131D80084B00251E1C084CE41AA410A54204D0DC
S1131D90AB00F35898470135F8E770BDF02E00000A
S1131DA0F02E0000F02E0000F42E0000002310B5E9
S1131DB0934203D0CC5CC4540133F9E710BD031C37
S1131DC08218934202D019700133FAE77047000079
S1131DD00FB40B4B13B51C68002C05D0A369002B62
S1131DE002D1201C00F096F905AB201CA168049ACE
S1131DF0019300F0F1FA16BC08BC04B01847C046C1
S1131E006C00002008B54A424A4180235200DB009E
S1131E1000F002F808BD0000F7B51E1C3C4B041C82
S1131E201D680F1C0192002D05D0AB69002B02D157
S1131E30281C00F06FF9374B9C4201D16C6808E014
S1131E40354B9C4201D1AC6803E0344B9C4200D139
S1131E50EC68019B022B58D8002E56DB281C211C51
S1131E6000F0EAF800236360A361A3891B0603D58D
S1131E70281C216900F0EAF98322A3899343A381F2
S1131E80019B022B13D0002F25D1002E01D18026D7
S1131E90F600301C00F0D0F9071E18D18020C000D5
S1131EA000F0CAF9071E10D10120404200E00020D2
S1131EB00222A3891343A3810023A360231C473375
S1131EC0236023610123636121E08026F6008022E0
S1131ED0A3891343A381019B012B05D1A389019AF3
S1131EE01A437342A281A3610D4B0020AB62A28905
S1131EF0276027616661130709D503231A405342FB
S1131F0053415B421E40A66001E001204042FEBDF9
S1131F106C000020502E0000702E0000902E000057
S1131F2091200000F7B58A89051C0C1C13075ED4A8
S1131F304B68002B02DC0B6C002B1ADDE76A002FC8
S1131F4017D000232E682B6080235B011A4001D038
S1131F50626D15E0281C216A0123B847021C431C4A
S1131F600ED12B68002B0BD01D2B01D0162B02D1C8
S1131F702E6000205EE04021A3890B43A38159E039
S1131F80A3895B0706D56368D21A636B002B01D063
S1131F90236CD21A0023281C216AE76AB847A38954
S1131FA0421C06D12A68002A03D01D2A01D0162A11
S1131FB019D10022626022692260DB0405D5431C2A
S1131FC002D12B68002B00D16065616B2E60002963
S1131FD0CFD0231C4433994202D0281C00F036F998
S1131FE00020606326E040221343A38122E00F69AE
S1131FF0002FBED00B680F60DB1B019300239207F8
S113200000D14B69A360019B002BB2DD281C216A1F
S11320103A1C019BA66AB047002806DC4022012036
S1132020A38940421343A38104E0019B3F181B1A78
S11320300193E8E7FEBD000038B50B69051C0C1CD4
S1132040002B01D100201CE0002804D08369002B60
S113205001D100F05FF80B4B9C4201D16C6808E0A1
S1132060094B9C4201D1AC6803E0084B9C4200D16F
S1132070EC680C22A35E002BE4D0281C211CFFF783
S113208051FF38BD502E0000702E0000902E00002D
S113209008B5024900F0AEF808BDC046392000007A
S11320A0002310B5041C0360436083608181436690
S11320B0C281036143618361191C08225C30FFF70C
S11320C07EFE054B24626362044BA362044BE3620D
S11320D0044B236310BDC046292900005129000088
S11320E089290000B529000070B568254B1E5D43A1
S11320F00E1C291C743100F0EFF8041E08D00021D6
S11321002A1C016046600C30A0606832FFF757FE5D
S1132110201C70BD836913B5002B28D18364C3646C
S11321200365134B134A1B6882620193984201D1E1
S113213001238361041C00F01FF86060201C00F080
S11321401BF8A060201C00F017F80421E0600022B6
S11321506068FFF7A5FFA06809210122FFF7A0FF2F
S1132160E06812210222FFF79BFF0123A36113BD44
S11321704C2E000091200000F8B51D4B061C1D6874
S1132180AB69002B02D1281CFFF7C4FF4835AC68AB
S11321906B68013B05D40C22A75E002F10D0683475
S11321A0F7E72B68002B06D1301C0421FFF79CFFB6
S11321B02860002801D02D68E9E70C23336016E07D
S11321C00123201C5B42E3810233A38167662760FD
S11321D0A760676027616761A7615C30391C0822CA
S11321E0FFF7EDFD201C6763A763A764E764F8BDF0
S11321F04C2E0000F7B5041C071C0026019148343E
S1132200002C16D06368A5680093009B013B0093E3
S11322100DD4AB89012B08D90E22AB5E013304D057
S1132220381C291C019B984706436835EDE7246850
S1132230E6E7301CFEBD000008B5034B011C18681E
S113224000F04AF808BDC0466C00002030B50029F3
S11322503ED004390B68002B00DAC9181D4A1368F4
S1132260141C002B02D14B60116031E099420DD255
S113227008680A189A4203D11368C3180B6053689C
S11322804B60216024E08A4203D8131C5A68002A58
S1132290F9D11D685C198C420BD10968691858186A
S11322A01960904214D110685268091819605A6074
S11322B00EE08C4202D90C23036009E008680C1874
S11322C0944203D114685268001908604A60596046
S11322D030BDC046A4010020032370B5CC1C9C4330
S11322E00834051C0C2C01D20C2405E0002C03DA64
S11322F00C2300202B6042E08C42F9D3204A13685F
S1132300101C191C002913D00A68121B0DD40B2AA7
S113231002D90A608B181FE08B4202D15A6802600E
S11323201BE04A685A600B1C17E00B1C4968E9E77C
S1132330144E3368002B03D1281C00F0E3FA3060FC
S1132340281C211C00F0DEFA031C421CD0D00322FE
S1132350C61C964386420AD11C60181C07210B3008
S11323601A1D8843821A0AD05142995007E0311A43
S1132370281C00F0C7FA431CBAD0331CECE770BD2C
S1132380A4010020A0010020936810B5013B9360D4
S1132390002B05DA9469A34208DBCBB20A2B05D0E3
S11323A01368581C10601970C8B201E000F008FBF3
S11323B010BDF8B5061C0F1C141CD518AC4208D06F
S11323C02178301C3A1CFFF7DFFF0134431CF5D1A0
S11323D000E00020F8BD0000F0B59FB0061C0F1C03
S11323E002920593002804D08369002B01D1FFF7E2
S11323F091FE794B9F4201D1776808E0774B9F4269
S113240001D1B76803E0764B9F4200D1F768BB89DE
S11324101B070AD53B69002B07D0002306AD6B616F
S113242020336B761033AB763DE0301C391C00F062
S113243033FB0028F1D001204042CAE0059A111D67
S113244012680591002A7EDB0992013423782E2B31
S113245000D189E021786348032200F00FFC0028B2
S113246008D0604B0134C01A40238340181C2B68E9
S1132470184328602178631C5B480622029329765E
S113248000F0FCFB002800D191E0584B002B00D059
S113249084E00722059B07339343083305936B6954
S11324A0039A9B186B61029C2378002B04D1029B36
S11324B0E31A049311D003E0252BF8D00134F3E799
S11324C0049B301C391C029AFFF773FF431C7BD01A
S11324D06A69049B944663446B612378002B73D030
S11324E00122002352426A6002A954325218013474
S11324F02B60EB60AB601370AB6521783C48052220
S113250000F0BCFB002809D0394B0134C01A012368
S11325108340181C2B6818432860EEE72B68DA0602
S113252004D55322202102A8121811701A0704D5C9
S113253053222B2102A81218117022782A2A00D1C2
S11325407CE7099B05E05242EA60022213432B60B8
S11325507BE72278303A092A04D80A214B43013414
S11325609B18F6E7099371E763782A2B09D1059B39
S113257002341A1D1B680592002B0DDA01235B42FD
S11325800AE0002301342278303A092A04D80A21C7
S11325904B4301349B18F6E707935BE705AB0093C5
S11325A0301C291C3A1C134B00E000BF07E005ABAC
S11325B00093301C291C3A1C0E4B00F08BF803903E
S11325C0039B013300D06AE7BB895B0600D532E781
S11325D00B981FB0F0BDC046502E0000702E0000B6
S11325E0902E0000B62E0000BA2E0000000000005D
S11325F0B02E0000B3230000F7B5171C01930A693D
S11326008B6800900C1C934200DA131C221C3B6064
S113261043321278002A01D001333B6023689B06C1
S113262002D53B6802333B60062523681D401ED05B
S1132630231C43331B785A1E9341226892061CD5EF
S11326403020E1184031C870211C5A1C45310978EA
S1132650A21840320233D1700FE0221C01230098EB
S113266001991932089EB047431C0ED00135E36826
S11326703A689B1A9D42F0DBDAE7221C0098019924
S11326804332089DA847431C02D10120404220E068
S113269006232068E1683A6803400025042B03D12F
S11326A08D1AEB43DB171D40A3682269934201DDB9
S11326B09B1AED180027AF420ADA221C0123009866
S11326C001991A32089EB047431CDED00137F2E765
S11326D00020FEBDF0B58BB006920A1C433207936E
S11326E0059004920A7E0C1C109B6E2A00D1A8E06F
S11326F011D8632A22D009D8002A00D1B2E0582A7E
S113270000D0C2E045310A707C4A4FE0642A1DD0F3
S1132710692A1BD0B9E0732A00D1A7E009D86F2A2F
S113272029D0702A00D0B0E0202209680A43226030
S113273037E0752A1FD0782A33D0A6E00E1C1A6819
S11327404236111D196013683370A1E021681A68BC
S1132750080606D4490604D5111D19600023D55E68
S113276002E0111D19601568002D3BDA2D23049A2F
S11327706D42137036E021681A68080606D44906CB
S113278004D51568111D1960ADB202E0111D196060
S113279015685A4B227E03930A276F2A1DD10827F6
S11327A01BE0221C782145321170554A19680392A6
S11327B0081D226818600D68100602D4500600D562
S11327C0ADB2D30702D520231A4322601027002D6F
S11327D003D1202322689A432260231C002243331E
S11327E01A7002E00A27454B03936368A360002B29
S11327F003DB0422216891432160002D02D1049E51
S1132800002B0ED0049E281C391CFFF773FA039B7F
S1132810013E5B5C281C3370391CFFF7E5F9051E8B
S1132820F1D1082F09D12368DB0706D56368226933
S1132830934202DC3023013E3370049B9B1B2361D3
S11328402BE009681A68080607D4490605D5111D46
S113285019601368A28A1A8004E0111D19601368B4
S113286062691A600023049E236116E01A68111D30
S1132870196016680021301C626800F0FFF9002816
S113288001D0801B6060636803E0261C423632700E
S1132890012323610023049A1370079B0598009376
S11328A0211C069B09AAFFF7A7FE431C02D10120A5
S11328B0404221E0236905980699321C079DA847E8
S11328C0431CF4D023689B0705D4099BE068984215
S11328D012DA181C10E00025E368099A9B1A9D423D
S11328E0F3DA221C0123059806991932079EB04792
S11328F0431CDCD00135EFE70BB0F0BDC12E000066
S1132900D22E000038B50023064C051C081C236099
S1132910FFF774F8431C03D12368002B00D02B600D
S113292038BDC046D801002038B50C1C0E25495FBF
S113293000F0B0F9002803DB636D1B18636503E046
S1132940A289024B1340A38138BDC046FFEFFFFFAD
S1132950F8B51E1C8B89051C0C1C171CDB0505D542
S11329600E23C95E0022022300F01CF9A289054B44
S1132970281C1340A3813A1C0E23E15E331C00F093
S113298077F8F8BDFFEFFFFF38B50C1C0E25495F43
S113299000F008F9A389421C03D1054A1340A3811E
S11329A004E0802252011343A381606538BDC04610
S11329B0FFEFFFFF08B50E23C95E00F0E1F808BD84
S11329C070B5051C0E1C141C002804D08369002B50
S11329D001D1FFF79FFB234B9C4201D16C6808E0B7
S11329E0214B9C4201D1AC6803E0204B9C4200D1B6
S11329F0EC68A369A360A3891B070AD52369002B8C
S1132A0007D023682269F6B2981A636998420FDBEB
S1132A1008E0281C211C00F03FF80028F1D0012018
S1132A2040421DE0281C211CFFF706FB0028F6D1BC
S1132A30A3680130013BA36023685A1C22601E7006
S1132A406369984205D0A389301CDB0708D50A2E98
S1132A5006D1281C211CFFF7EFFA0028DFD1301C17
S1132A6070BDC046502E0000702E0000902E000055
S1132A7038B5051C0020074C2060081C111C1A1CCA
S1132A80FDF79EFD431C03D12368002B00D02B606F
S1132A9038BDC046D8010020354B70B51D68061CF2
S1132AA00C1C002D05D0AB69002B02D1281CFFF7AC
S1132AB031FB304B9C4201D16C6808E02E4B9C42A8
S1132AC001D1AC6803E02D4B9C4200D1EC68A38992
S1132AD09AB2110723D4D10607D409220120326007
S1132AE037321343A381404240E0530713D5616B4F
S1132AF0002908D0231C4433994202D0301CFFF72C
S1132B00A5FB002363632422A3899343A3810023A9
S1132B106360236923600822A3891343A381236983
S1132B20002B0BD1A023A2899B001340802292008A
S1132B30934203D0301C211C00F048F80123A289E1
S1132B40134005D00023A36063695B42A36103E0E3
S1132B50910700D46369A36000202369834205D1EF
S1132B60130603D540231A43A281013870BDC04621
S1132B706C000020502E0000702E0000902E0000EB
S1132B8038B50023064C051C081C2360FEF748FFDB
S1132B90431C03D12368002B00D02B6038BDC046F2
S1132BA0D801002038B5051C0020074C2060081C03
S1132BB0111C1A1CFEF740FF431C03D12368002B91
S1132BC000D02B6038BDC046D8010020F0B58B89F9
S1132BD091B09B0706D50B1C47330B600B61012397
S1132BE04B6145E00C1C0E23C95E061C002904DA67
S1132BF08023A5891D4010D10CE001AA00F05EF8E5
S1132C000028F5DBF023029D1B021D40194BED1833
S1132C106B425D418027FF0001E000254027301C06
S1132C20391CFFF759FB00280CD1A3899A051FD43E
S1132C3002221343A381231C47332360236101230E
S1132C40636115E080220C4BB362A38920601343B7
S1132C50A38120616761002D0AD00E23E15E301C40
S1132C6000F03EF8002803D00122A3891343A38176
S1132C7011B0F0BD00E0FFFF91200000C9B282183E
S1132C80904204D003788B4202D00130F8E7002050
S1132C907047000038B5051C0020074C2060081C54
S1132CA0111C1A1CFDF76AFC431C03D12368002B7A
S1132CB000D02B6038BDC046D801002038B50023B1
S1132CC0064C051C081C111C2360FEF7ADFE431CBA
S1132CD003D12368002B00D02B6038BDD80100201D
S1132CE038B50023064C051C081C2360FEF7A2FE21
S1132CF0431C03D12368002B00D02B6038BDC04691
S1132D00D801002000080042000C004200100042DC
S1132D100014004200180042001C0042090A0B0C77
S1132D200D0E00000100000002000000040000007D
S1132D300800000000100000002000000040000017
S1132D4000800000000001000000020000000400F8
S1132D50000008005A100000561000005610000031
S1132D60B6100000B61000007010000060100000E3
S1132D7076100000A41000002413000004130000C7
S1132D800413000090130000161300003213000017
S1132D90081300004013000080130000010000002D
S1132DA0000000000000000000000000010000001E
S1132DB0000000000000000000000000010000000E
S1132DC001000000010000000000000000000000FD
S1132DD001000000010000000100000000000000EC
S1132DE001000000010000000100000001000000DB
S1132DF0486578613A20253034780A42696E3A2071
S1132E00000000004672657175656E63793A20258D
S1132E107520202D2D2D2D20447574792063796320
S1132E206C653A2025750A0031000000300000006E
S1132E3020496E7465727275707320737461746561
S1132E403A20257320000000430000000C000020FD
S1132E50000000000000000000000000000000006E
S1132E60000000000000000000000000000000005E
S1132E70000000000000000000000000000000004E
S1132E80000000000000000000000000000000003E
S1132E90000000000000000000000000000000002E
S1132EA0000000000000000000000000000000001E
S1132EB0232D302B2000686C4C006566674546471F
S1132EC000303132333435363738394142434445A2
S1132ED04600303132333435363738396162636411
S1132EE065660000F8B5C046F8BC08BC9E4670474D
S1132EF0DD000000F8B5C046F8BC08BC9E4670472B
S1072F00B500000014
S1132F0408000000401F000001000300000000004E
S1132F14502E0000702E0000902E000000000000CF
S1132F24000000000000000000000000482E000023
S1132F340000000000000000000000000000000089
S1132F440000000000000000000000000000000079
S1132F540000000000000000000000000000000069
S1132F640000000000000000000000000C0000202D
S9031905DE
